{
  "contractName": "Monoplasma",
  "abi": [
    {
      "inputs": [
        {
          "internalType": "address",
          "name": "tokenAddress",
          "type": "address"
        },
        {
          "internalType": "uint256",
          "name": "blockFreezePeriodSeconds",
          "type": "uint256"
        },
        {
          "internalType": "uint256",
          "name": "initialAdminFee",
          "type": "uint256"
        }
      ],
      "payable": false,
      "stateMutability": "nonpayable",
      "type": "constructor"
    },
    {
      "anonymous": false,
      "inputs": [
        {
          "indexed": false,
          "internalType": "uint256",
          "name": "adminFee",
          "type": "uint256"
        }
      ],
      "name": "AdminFeeChanged",
      "type": "event"
    },
    {
      "anonymous": false,
      "inputs": [
        {
          "indexed": false,
          "internalType": "uint256",
          "name": "blockNumber",
          "type": "uint256"
        },
        {
          "indexed": false,
          "internalType": "bytes32",
          "name": "rootHash",
          "type": "bytes32"
        },
        {
          "indexed": false,
          "internalType": "string",
          "name": "ipfsHash",
          "type": "string"
        }
      ],
      "name": "NewCommit",
      "type": "event"
    },
    {
      "anonymous": false,
      "inputs": [
        {
          "indexed": true,
          "internalType": "address",
          "name": "newOperator",
          "type": "address"
        }
      ],
      "name": "OperatorChanged",
      "type": "event"
    },
    {
      "anonymous": false,
      "inputs": [
        {
          "indexed": true,
          "internalType": "address",
          "name": "previousOwner",
          "type": "address"
        },
        {
          "indexed": true,
          "internalType": "address",
          "name": "newOwner",
          "type": "address"
        }
      ],
      "name": "OwnershipTransferred",
      "type": "event"
    },
    {
      "constant": true,
      "inputs": [],
      "name": "adminFee",
      "outputs": [
        {
          "internalType": "uint256",
          "name": "",
          "type": "uint256"
        }
      ],
      "payable": false,
      "stateMutability": "view",
      "type": "function"
    },
    {
      "constant": true,
      "inputs": [],
      "name": "blockFreezeSeconds",
      "outputs": [
        {
          "internalType": "uint256",
          "name": "",
          "type": "uint256"
        }
      ],
      "payable": false,
      "stateMutability": "view",
      "type": "function"
    },
    {
      "constant": true,
      "inputs": [
        {
          "internalType": "uint256",
          "name": "",
          "type": "uint256"
        }
      ],
      "name": "blockTimestamp",
      "outputs": [
        {
          "internalType": "uint256",
          "name": "",
          "type": "uint256"
        }
      ],
      "payable": false,
      "stateMutability": "view",
      "type": "function"
    },
    {
      "constant": true,
      "inputs": [
        {
          "internalType": "bytes32",
          "name": "leafHash",
          "type": "bytes32"
        },
        {
          "internalType": "bytes32[]",
          "name": "others",
          "type": "bytes32[]"
        }
      ],
      "name": "calculateRootHash",
      "outputs": [
        {
          "internalType": "bytes32",
          "name": "root",
          "type": "bytes32"
        }
      ],
      "payable": false,
      "stateMutability": "pure",
      "type": "function"
    },
    {
      "constant": false,
      "inputs": [],
      "name": "claimOwnership",
      "outputs": [],
      "payable": false,
      "stateMutability": "nonpayable",
      "type": "function"
    },
    {
      "constant": false,
      "inputs": [
        {
          "internalType": "uint256",
          "name": "blockNumber",
          "type": "uint256"
        },
        {
          "internalType": "bytes32",
          "name": "rootHash",
          "type": "bytes32"
        },
        {
          "internalType": "string",
          "name": "ipfsHash",
          "type": "string"
        }
      ],
      "name": "commit",
      "outputs": [],
      "payable": false,
      "stateMutability": "nonpayable",
      "type": "function"
    },
    {
      "constant": true,
      "inputs": [
        {
          "internalType": "uint256",
          "name": "",
          "type": "uint256"
        }
      ],
      "name": "committedHash",
      "outputs": [
        {
          "internalType": "bytes32",
          "name": "",
          "type": "bytes32"
        }
      ],
      "payable": false,
      "stateMutability": "view",
      "type": "function"
    },
    {
      "constant": true,
      "inputs": [
        {
          "internalType": "address",
          "name": "",
          "type": "address"
        }
      ],
      "name": "earnings",
      "outputs": [
        {
          "internalType": "uint256",
          "name": "",
          "type": "uint256"
        }
      ],
      "payable": false,
      "stateMutability": "view",
      "type": "function"
    },
    {
      "constant": true,
      "inputs": [],
      "name": "operator",
      "outputs": [
        {
          "internalType": "address",
          "name": "",
          "type": "address"
        }
      ],
      "payable": false,
      "stateMutability": "view",
      "type": "function"
    },
    {
      "constant": true,
      "inputs": [],
      "name": "owner",
      "outputs": [
        {
          "internalType": "address",
          "name": "",
          "type": "address"
        }
      ],
      "payable": false,
      "stateMutability": "view",
      "type": "function"
    },
    {
      "constant": true,
      "inputs": [],
      "name": "pendingOwner",
      "outputs": [
        {
          "internalType": "address",
          "name": "",
          "type": "address"
        }
      ],
      "payable": false,
      "stateMutability": "view",
      "type": "function"
    },
    {
      "constant": true,
      "inputs": [
        {
          "internalType": "uint256",
          "name": "blockNumber",
          "type": "uint256"
        },
        {
          "internalType": "address",
          "name": "account",
          "type": "address"
        },
        {
          "internalType": "uint256",
          "name": "balance",
          "type": "uint256"
        },
        {
          "internalType": "bytes32[]",
          "name": "proof",
          "type": "bytes32[]"
        }
      ],
      "name": "proofIsCorrect",
      "outputs": [
        {
          "internalType": "bool",
          "name": "",
          "type": "bool"
        }
      ],
      "payable": false,
      "stateMutability": "view",
      "type": "function"
    },
    {
      "constant": false,
      "inputs": [
        {
          "internalType": "uint256",
          "name": "blockNumber",
          "type": "uint256"
        },
        {
          "internalType": "address",
          "name": "account",
          "type": "address"
        },
        {
          "internalType": "uint256",
          "name": "balance",
          "type": "uint256"
        },
        {
          "internalType": "bytes32[]",
          "name": "proof",
          "type": "bytes32[]"
        }
      ],
      "name": "prove",
      "outputs": [],
      "payable": false,
      "stateMutability": "nonpayable",
      "type": "function"
    },
    {
      "constant": true,
      "inputs": [],
      "name": "token",
      "outputs": [
        {
          "internalType": "contract IERC20",
          "name": "",
          "type": "address"
        }
      ],
      "payable": false,
      "stateMutability": "view",
      "type": "function"
    },
    {
      "constant": true,
      "inputs": [],
      "name": "totalProven",
      "outputs": [
        {
          "internalType": "uint256",
          "name": "",
          "type": "uint256"
        }
      ],
      "payable": false,
      "stateMutability": "view",
      "type": "function"
    },
    {
      "constant": true,
      "inputs": [],
      "name": "totalWithdrawn",
      "outputs": [
        {
          "internalType": "uint256",
          "name": "",
          "type": "uint256"
        }
      ],
      "payable": false,
      "stateMutability": "view",
      "type": "function"
    },
    {
      "constant": false,
      "inputs": [
        {
          "internalType": "address",
          "name": "newOwner",
          "type": "address"
        }
      ],
      "name": "transferOwnership",
      "outputs": [],
      "payable": false,
      "stateMutability": "nonpayable",
      "type": "function"
    },
    {
      "constant": true,
      "inputs": [
        {
          "internalType": "address",
          "name": "",
          "type": "address"
        }
      ],
      "name": "withdrawn",
      "outputs": [
        {
          "internalType": "uint256",
          "name": "",
          "type": "uint256"
        }
      ],
      "payable": false,
      "stateMutability": "view",
      "type": "function"
    },
    {
      "constant": false,
      "inputs": [
        {
          "internalType": "address",
          "name": "newOperator",
          "type": "address"
        }
      ],
      "name": "setOperator",
      "outputs": [],
      "payable": false,
      "stateMutability": "nonpayable",
      "type": "function"
    },
    {
      "constant": false,
      "inputs": [
        {
          "internalType": "uint256",
          "name": "newAdminFee",
          "type": "uint256"
        }
      ],
      "name": "setAdminFee",
      "outputs": [],
      "payable": false,
      "stateMutability": "nonpayable",
      "type": "function"
    },
    {
      "constant": false,
      "inputs": [
        {
          "internalType": "uint256",
          "name": "blockNumber",
          "type": "uint256"
        },
        {
          "internalType": "uint256",
          "name": "totalEarnings",
          "type": "uint256"
        },
        {
          "internalType": "bytes32[]",
          "name": "proof",
          "type": "bytes32[]"
        }
      ],
      "name": "withdrawAll",
      "outputs": [],
      "payable": false,
      "stateMutability": "nonpayable",
      "type": "function"
    },
    {
      "constant": false,
      "inputs": [
        {
          "internalType": "address",
          "name": "recipient",
          "type": "address"
        },
        {
          "internalType": "uint256",
          "name": "blockNumber",
          "type": "uint256"
        },
        {
          "internalType": "uint256",
          "name": "totalEarnings",
          "type": "uint256"
        },
        {
          "internalType": "bytes32[]",
          "name": "proof",
          "type": "bytes32[]"
        }
      ],
      "name": "withdrawAllFor",
      "outputs": [],
      "payable": false,
      "stateMutability": "nonpayable",
      "type": "function"
    },
    {
      "constant": false,
      "inputs": [
        {
          "internalType": "address",
          "name": "recipient",
          "type": "address"
        },
        {
          "internalType": "uint256",
          "name": "blockNumber",
          "type": "uint256"
        },
        {
          "internalType": "uint256",
          "name": "totalEarnings",
          "type": "uint256"
        },
        {
          "internalType": "bytes32[]",
          "name": "proof",
          "type": "bytes32[]"
        }
      ],
      "name": "withdrawAllTo",
      "outputs": [],
      "payable": false,
      "stateMutability": "nonpayable",
      "type": "function"
    },
    {
      "constant": false,
      "inputs": [
        {
          "internalType": "address",
          "name": "recipient",
          "type": "address"
        },
        {
          "internalType": "address",
          "name": "signer",
          "type": "address"
        },
        {
          "internalType": "bytes",
          "name": "signature",
          "type": "bytes"
        },
        {
          "internalType": "uint256",
          "name": "blockNumber",
          "type": "uint256"
        },
        {
          "internalType": "uint256",
          "name": "totalEarnings",
          "type": "uint256"
        },
        {
          "internalType": "bytes32[]",
          "name": "proof",
          "type": "bytes32[]"
        }
      ],
      "name": "withdrawAllToSigned",
      "outputs": [],
      "payable": false,
      "stateMutability": "nonpayable",
      "type": "function"
    },
    {
      "constant": false,
      "inputs": [
        {
          "internalType": "address",
          "name": "recipient",
          "type": "address"
        },
        {
          "internalType": "address",
          "name": "signer",
          "type": "address"
        },
        {
          "internalType": "uint256",
          "name": "amount",
          "type": "uint256"
        },
        {
          "internalType": "bytes",
          "name": "signature",
          "type": "bytes"
        },
        {
          "internalType": "uint256",
          "name": "blockNumber",
          "type": "uint256"
        },
        {
          "internalType": "uint256",
          "name": "totalEarnings",
          "type": "uint256"
        },
        {
          "internalType": "bytes32[]",
          "name": "proof",
          "type": "bytes32[]"
        }
      ],
      "name": "proveAndWithdrawToSigned",
      "outputs": [],
      "payable": false,
      "stateMutability": "nonpayable",
      "type": "function"
    },
    {
      "constant": false,
      "inputs": [
        {
          "internalType": "uint256",
          "name": "amount",
          "type": "uint256"
        }
      ],
      "name": "withdraw",
      "outputs": [],
      "payable": false,
      "stateMutability": "nonpayable",
      "type": "function"
    },
    {
      "constant": false,
      "inputs": [
        {
          "internalType": "address",
          "name": "recipient",
          "type": "address"
        },
        {
          "internalType": "uint256",
          "name": "amount",
          "type": "uint256"
        }
      ],
      "name": "withdrawFor",
      "outputs": [],
      "payable": false,
      "stateMutability": "nonpayable",
      "type": "function"
    },
    {
      "constant": false,
      "inputs": [
        {
          "internalType": "address",
          "name": "recipient",
          "type": "address"
        },
        {
          "internalType": "uint256",
          "name": "amount",
          "type": "uint256"
        }
      ],
      "name": "withdrawTo",
      "outputs": [],
      "payable": false,
      "stateMutability": "nonpayable",
      "type": "function"
    },
    {
      "constant": false,
      "inputs": [
        {
          "internalType": "address",
          "name": "recipient",
          "type": "address"
        },
        {
          "internalType": "address",
          "name": "signer",
          "type": "address"
        },
        {
          "internalType": "uint256",
          "name": "amount",
          "type": "uint256"
        },
        {
          "internalType": "bytes",
          "name": "signature",
          "type": "bytes"
        }
      ],
      "name": "withdrawToSigned",
      "outputs": [],
      "payable": false,
      "stateMutability": "nonpayable",
      "type": "function"
    },
    {
      "constant": true,
      "inputs": [
        {
          "internalType": "address",
          "name": "recipient",
          "type": "address"
        },
        {
          "internalType": "address",
          "name": "signer",
          "type": "address"
        },
        {
          "internalType": "uint256",
          "name": "amount",
          "type": "uint256"
        },
        {
          "internalType": "bytes",
          "name": "signature",
          "type": "bytes"
        }
      ],
      "name": "signatureIsValid",
      "outputs": [
        {
          "internalType": "bool",
          "name": "isValid",
          "type": "bool"
        }
      ],
      "payable": false,
      "stateMutability": "view",
      "type": "function"
    }
  ],
  "bytecode": "0x60806040523480156200001157600080fd5b5060405162002ee538038062002ee5833981810160405260608110156200003757600080fd5b8101908080519060200190929190805190602001909291908051906020019092919050505033600160006101000a81548173ffffffffffffffffffffffffffffffffffffffff021916908373ffffffffffffffffffffffffffffffffffffffff1602179055508160038190555082600760006101000a81548173ffffffffffffffffffffffffffffffffffffffff021916908373ffffffffffffffffffffffffffffffffffffffff16021790555033600560006101000a81548173ffffffffffffffffffffffffffffffffffffffff021916908373ffffffffffffffffffffffffffffffffffffffff16021790555062000137816200014060201b60201c565b505050620002c6565b600160009054906101000a900473ffffffffffffffffffffffffffffffffffffffff1673ffffffffffffffffffffffffffffffffffffffff163373ffffffffffffffffffffffffffffffffffffffff161462000204576040517f08c379a000000000000000000000000000000000000000000000000000000000815260040180806020018281038252600f8152602001807f6572726f725f6f6e6c794f776e6572000000000000000000000000000000000081525060200191505060405180910390fd5b670de0b6b3a764000081111562000283576040517f08c379a000000000000000000000000000000000000000000000000000000000815260040180806020018281038252600e8152602001807f6572726f725f61646d696e46656500000000000000000000000000000000000081525060200191505060405180910390fd5b806006819055507f11a80b766155f9b8f16a7da44d66269fd694cb1c247f4814244586f68dd534876006546040518082815260200191505060405180910390a150565b612c0f80620002d66000396000f3fe608060405234801561001057600080fd5b50600436106101da5760003560e01c80638da5cb5b11610104578063b74d784e116100a2578063e1a9888e11610071578063e1a9888e14610f0c578063e30c397814610f4e578063f2fde38b14610f98578063fc0c546a14610fdc576101da565b8063b74d784e14610d0f578063c3ac610d14610d2d578063cb9b51c814610dba578063db518db214610ebe576101da565b8063a2d3cf4b116100de578063a2d3cf4b14610987578063adc4c87414610aa4578063b3ab15fb14610ba9578063b619d3bd14610bed576101da565b80638da5cb5b146107f3578063a0b9d1011461083d578063a0be06f914610969576101da565b8063543fd3131161017c5780636ef610921161014b5780636ef610921461070d57806371b150131461076557806373d8903b146107835780638beb60b6146107c5576101da565b8063543fd313146104a9578063570ca735146105015780636c7a9d241461054b5780636dd4a7c914610637576101da565b806332ef2b24116101b857806332ef2b24146103085780634942e4cf146103f45780634b319713146104815780634e71e0c81461049f576101da565b8063205c2878146101df578063270231cc1461022d5780632e1a7d4d146102da575b600080fd5b61022b600480360360408110156101f557600080fd5b81019080803573ffffffffffffffffffffffffffffffffffffffff16906020019092919080359060200190929190505050611026565b005b6102d86004803603608081101561024357600080fd5b81019080803573ffffffffffffffffffffffffffffffffffffffff16906020019092919080359060200190929190803590602001909291908035906020019064010000000081111561029457600080fd5b8201836020820111156102a657600080fd5b803590602001918460208302840111640100000000831117156102c857600080fd5b9091929391929390505050611035565b005b610306600480360360208110156102f057600080fd5b81019080803590602001909291905050506110ea565b005b6103f26004803603608081101561031e57600080fd5b8101908080359060200190929190803573ffffffffffffffffffffffffffffffffffffffff169060200190929190803590602001909291908035906020019064010000000081111561036f57600080fd5b82018360208201111561038157600080fd5b803590602001918460208302840111640100000000831117156103a357600080fd5b919080806020026020016040519081016040528093929190818152602001838360200280828437600081840152601f19601f8201169050808301925050505050505091929192905050506110f8565b005b61047f6004803603606081101561040a57600080fd5b8101908080359060200190929190803590602001909291908035906020019064010000000081111561043b57600080fd5b82018360208201111561044d57600080fd5b8035906020019184602083028401116401000000008311171561046f57600080fd5b9091929391929390505050611187565b005b6104896111da565b6040518082815260200191505060405180910390f35b6104a76111e0565b005b6104eb600480360360208110156104bf57600080fd5b81019080803573ffffffffffffffffffffffffffffffffffffffff1690602001909291905050506113e8565b6040518082815260200191505060405180910390f35b610509611400565b604051808273ffffffffffffffffffffffffffffffffffffffff1673ffffffffffffffffffffffffffffffffffffffff16815260200191505060405180910390f35b6106356004803603608081101561056157600080fd5b81019080803573ffffffffffffffffffffffffffffffffffffffff1690602001909291908035906020019092919080359060200190929190803590602001906401000000008111156105b257600080fd5b8201836020820111156105c457600080fd5b803590602001918460208302840111640100000000831117156105e657600080fd5b919080806020026020016040519081016040528093929190818152602001838360200280828437600081840152601f19601f820116905080830192505050505050509192919290505050611426565b005b6106f76004803603604081101561064d57600080fd5b81019080803590602001909291908035906020019064010000000081111561067457600080fd5b82018360208201111561068657600080fd5b803590602001918460208302840111640100000000831117156106a857600080fd5b919080806020026020016040519081016040528093929190818152602001838360200280828437600081840152601f19601f820116905080830192505050505050509192919290505050611499565b6040518082815260200191505060405180910390f35b61074f6004803603602081101561072357600080fd5b81019080803573ffffffffffffffffffffffffffffffffffffffff169060200190929190505050611550565b6040518082815260200191505060405180910390f35b61076d611568565b6040518082815260200191505060405180910390f35b6107af6004803603602081101561079957600080fd5b810190808035906020019092919050505061156e565b6040518082815260200191505060405180910390f35b6107f1600480360360208110156107db57600080fd5b8101908080359060200190929190505050611586565b005b6107fb61170a565b604051808273ffffffffffffffffffffffffffffffffffffffff1673ffffffffffffffffffffffffffffffffffffffff16815260200191505060405180910390f35b610967600480360360e081101561085357600080fd5b81019080803573ffffffffffffffffffffffffffffffffffffffff169060200190929190803573ffffffffffffffffffffffffffffffffffffffff16906020019092919080359060200190929190803590602001906401000000008111156108ba57600080fd5b8201836020820111156108cc57600080fd5b803590602001918460018302840111640100000000831117156108ee57600080fd5b909192939192939080359060200190929190803590602001909291908035906020019064010000000081111561092357600080fd5b82018360208201111561093557600080fd5b8035906020019184602083028401116401000000008311171561095757600080fd5b9091929391929390505050611730565b005b610971611855565b6040518082815260200191505060405180910390f35b610a8a6004803603608081101561099d57600080fd5b81019080803573ffffffffffffffffffffffffffffffffffffffff169060200190929190803573ffffffffffffffffffffffffffffffffffffffff1690602001909291908035906020019092919080359060200190640100000000811115610a0457600080fd5b820183602082011115610a1657600080fd5b80359060200191846001830284011164010000000083111715610a3857600080fd5b91908080601f016020809104026020016040519081016040528093929190818152602001838380828437600081840152601f19601f82011690508083019250505050505050919291929050505061185b565b604051808215151515815260200191505060405180910390f35b610ba760048036036080811015610aba57600080fd5b81019080803573ffffffffffffffffffffffffffffffffffffffff169060200190929190803573ffffffffffffffffffffffffffffffffffffffff1690602001909291908035906020019092919080359060200190640100000000811115610b2157600080fd5b820183602082011115610b3357600080fd5b80359060200191846001830284011164010000000083111715610b5557600080fd5b91908080601f016020809104026020016040519081016040528093929190818152602001838380828437600081840152601f19601f820116905080830192505050505050509192919290505050611b3c565b005b610beb60048036036020811015610bbf57600080fd5b81019080803573ffffffffffffffffffffffffffffffffffffffff169060200190929190505050611bcb565b005b610d0d600480360360c0811015610c0357600080fd5b81019080803573ffffffffffffffffffffffffffffffffffffffff169060200190929190803573ffffffffffffffffffffffffffffffffffffffff16906020019092919080359060200190640100000000811115610c6057600080fd5b820183602082011115610c7257600080fd5b80359060200191846001830284011164010000000083111715610c9457600080fd5b9091929391929390803590602001909291908035906020019092919080359060200190640100000000811115610cc957600080fd5b820183602082011115610cdb57600080fd5b80359060200191846020830284011164010000000083111715610cfd57600080fd5b9091929391929390505050611d15565b005b610d17611e91565b6040518082815260200191505060405180910390f35b610db860048036036060811015610d4357600080fd5b81019080803590602001909291908035906020019092919080359060200190640100000000811115610d7457600080fd5b820183602082011115610d8657600080fd5b80359060200191846001830284011164010000000083111715610da857600080fd5b9091929391929390505050611e97565b005b610ea460048036036080811015610dd057600080fd5b8101908080359060200190929190803573ffffffffffffffffffffffffffffffffffffffff1690602001909291908035906020019092919080359060200190640100000000811115610e2157600080fd5b820183602082011115610e3357600080fd5b80359060200191846020830284011164010000000083111715610e5557600080fd5b919080806020026020016040519081016040528093929190818152602001838360200280828437600081840152601f19601f82011690508083019250505050505050919291929050505061203f565b604051808215151515815260200191505060405180910390f35b610f0a60048036036040811015610ed457600080fd5b81019080803573ffffffffffffffffffffffffffffffffffffffff16906020019092919080359060200190929190505050612152565b005b610f3860048036036020811015610f2257600080fd5b8101908080359060200190929190505050612161565b6040518082815260200191505060405180910390f35b610f56612179565b604051808273ffffffffffffffffffffffffffffffffffffffff1673ffffffffffffffffffffffffffffffffffffffff16815260200191505060405180910390f35b610fda60048036036020811015610fae57600080fd5b81019080803573ffffffffffffffffffffffffffffffffffffffff16906020019092919050505061219f565b005b610fe46122a6565b604051808273ffffffffffffffffffffffffffffffffffffffff1673ffffffffffffffffffffffffffffffffffffffff16815260200191505060405180910390f35b6110318233836122cc565b5050565b611082843385858580806020026020016040519081016040528093929190818152602001838360200280828437600081840152601f19601f820116905080830192505050505050506110f8565b60006110d6600b60003373ffffffffffffffffffffffffffffffffffffffff1673ffffffffffffffffffffffffffffffffffffffff168152602001908152602001600020548561260890919063ffffffff16565b90506110e28682611026565b505050505050565b6110f53333836122cc565b50565b6111048484848461203f565b611176576040517f08c379a000000000000000000000000000000000000000000000000000000000815260040180806020018281038252600b8152602001807f6572726f725f70726f6f6600000000000000000000000000000000000000000081525060200191505060405180910390fd5b611181848484612652565b50505050565b6111d4338585858580806020026020016040519081016040528093929190818152602001838360200280828437600081840152601f19601f82011690508083019250505050505050611426565b50505050565b60085481565b600260009054906101000a900473ffffffffffffffffffffffffffffffffffffffff1673ffffffffffffffffffffffffffffffffffffffff163373ffffffffffffffffffffffffffffffffffffffff16146112a3576040517f08c379a00000000000000000000000000000000000000000000000000000000081526004018080602001828103825260168152602001807f6572726f725f6f6e6c7950656e64696e674f776e65720000000000000000000081525060200191505060405180910390fd5b600260009054906101000a900473ffffffffffffffffffffffffffffffffffffffff1673ffffffffffffffffffffffffffffffffffffffff16600160009054906101000a900473ffffffffffffffffffffffffffffffffffffffff1673ffffffffffffffffffffffffffffffffffffffff167f8be0079c531659141344cd1fd0a4f28419497f9722a3daafe3b4186f6b6457e060405160405180910390a3600260009054906101000a900473ffffffffffffffffffffffffffffffffffffffff16600160006101000a81548173ffffffffffffffffffffffffffffffffffffffff021916908373ffffffffffffffffffffffffffffffffffffffff1602179055506000600260006101000a81548173ffffffffffffffffffffffffffffffffffffffff021916908373ffffffffffffffffffffffffffffffffffffffff160217905550565b600a6020528060005260406000206000915090505481565b600560009054906101000a900473ffffffffffffffffffffffffffffffffffffffff1681565b611432838584846110f8565b6000611486600b60008773ffffffffffffffffffffffffffffffffffffffff1673ffffffffffffffffffffffffffffffffffffffff168152602001908152602001600020548461260890919063ffffffff16565b90506114928582612152565b5050505050565b600082905060008090505b82518160ff161015611549576000838260ff16815181106114c157fe5b6020026020010151905080831015611509578281604051602001808381526020018281526020019250505060405160208183030381529060405280519060200120925061153b565b808360405160200180838152602001828152602001925050506040516020818303038152906040528051906020012092505b5080806001019150506114a4565b5092915050565b600b6020528060005260406000206000915090505481565b60035481565b60046020528060005260406000206000915090505481565b600160009054906101000a900473ffffffffffffffffffffffffffffffffffffffff1673ffffffffffffffffffffffffffffffffffffffff163373ffffffffffffffffffffffffffffffffffffffff1614611649576040517f08c379a000000000000000000000000000000000000000000000000000000000815260040180806020018281038252600f8152602001807f6572726f725f6f6e6c794f776e6572000000000000000000000000000000000081525060200191505060405180910390fd5b670de0b6b3a76400008111156116c7576040517f08c379a000000000000000000000000000000000000000000000000000000000815260040180806020018281038252600e8152602001807f6572726f725f61646d696e46656500000000000000000000000000000000000081525060200191505060405180910390fd5b806006819055507f11a80b766155f9b8f16a7da44d66269fd694cb1c247f4814244586f68dd534876006546040518082815260200191505060405180910390a150565b600160009054906101000a900473ffffffffffffffffffffffffffffffffffffffff1681565b61178089898989898080601f016020809104026020016040519081016040528093929190818152602001838380828437600081840152601f19601f8201169050808301925050505050505061185b565b6117f2576040517f08c379a00000000000000000000000000000000000000000000000000000000081526004018080602001828103825260128152602001807f6572726f725f6261645369676e6174757265000000000000000000000000000081525060200191505060405180910390fd5b61183f848985858580806020026020016040519081016040528093929190818152602001838360200280828437600081840152601f19601f820116905080830192505050505050506110f8565b61184a8989896122cc565b505050505050505050565b60065481565b600060418251146118d4576040517f08c379a00000000000000000000000000000000000000000000000000000000081526004018080602001828103825260188152602001807f6572726f725f6261645369676e61747572654c656e677468000000000000000081525060200191505060405180910390fd5b60008060006020850151925060408501519150606085015160001a9050601b8160ff16101561190457601b810190505b601b8160ff1614806119195750601c8160ff16145b61198b576040517f08c379a00000000000000000000000000000000000000000000000000000000081526004018080602001828103825260198152602001807f6572726f725f6261645369676e617475726556657273696f6e0000000000000081525060200191505060405180910390fd5b6000888730600b60008c73ffffffffffffffffffffffffffffffffffffffff1673ffffffffffffffffffffffffffffffffffffffff1681526020019081526020016000205460405160200180807f19457468657265756d205369676e6564204d6573736167653a0a313034000000815250601d018573ffffffffffffffffffffffffffffffffffffffff1673ffffffffffffffffffffffffffffffffffffffff1660601b81526014018481526020018373ffffffffffffffffffffffffffffffffffffffff1673ffffffffffffffffffffffffffffffffffffffff1660601b8152601401828152602001945050505050604051602081830303815290604052805190602001209050600060018284878760405160008152602001604052604051808581526020018460ff1660ff1681526020018381526020018281526020019450505050506020604051602081039080840390855afa158015611af2573d6000803e3d6000fd5b5050506020604051035190508873ffffffffffffffffffffffffffffffffffffffff168173ffffffffffffffffffffffffffffffffffffffff161495505050505050949350505050565b611b488484848461185b565b611bba576040517f08c379a00000000000000000000000000000000000000000000000000000000081526004018080602001828103825260128152602001807f6572726f725f6261645369676e6174757265000000000000000000000000000081525060200191505060405180910390fd5b611bc58484846122cc565b50505050565b600160009054906101000a900473ffffffffffffffffffffffffffffffffffffffff1673ffffffffffffffffffffffffffffffffffffffff163373ffffffffffffffffffffffffffffffffffffffff1614611c8e576040517f08c379a000000000000000000000000000000000000000000000000000000000815260040180806020018281038252600f8152602001807f6572726f725f6f6e6c794f776e6572000000000000000000000000000000000081525060200191505060405180910390fd5b80600560006101000a81548173ffffffffffffffffffffffffffffffffffffffff021916908373ffffffffffffffffffffffffffffffffffffffff1602179055508073ffffffffffffffffffffffffffffffffffffffff167f4721129e0e676ed6a92909bb24e853ccdd63ad72280cc2e974e38e480e0e6e5460405160405180910390a250565b611d668888600089898080601f016020809104026020016040519081016040528093929190818152602001838380828437600081840152601f19601f8201169050808301925050505050505061185b565b611dd8576040517f08c379a00000000000000000000000000000000000000000000000000000000081526004018080602001828103825260128152602001807f6572726f725f6261645369676e6174757265000000000000000000000000000081525060200191505060405180910390fd5b611e25848885858580806020026020016040519081016040528093929190818152602001838360200280828437600081840152601f19601f820116905080830192505050505050506110f8565b6000611e79600b60008a73ffffffffffffffffffffffffffffffffffffffff1673ffffffffffffffffffffffffffffffffffffffff168152602001908152602001600020548561260890919063ffffffff16565b9050611e868989836122cc565b505050505050505050565b60095481565b6000801b6000808681526020019081526020016000205414611f21576040517f08c379a000000000000000000000000000000000000000000000000000000000815260040180806020018281038252600f8152602001807f6572726f725f6f7665727772697465000000000000000000000000000000000081525060200191505060405180910390fd5b606082828080601f016020809104026020016040519081016040528093929190818152602001838380828437600081840152601f19601f820116905080830192505050505050509050611f758585836129b2565b83600080878152602001908152602001600020819055507f444dcb3cce8fbb3e1dabd2ff958f17fb1e673b759824d631d9cda0690d031eb98585836040518084815260200183815260200180602001828103825283818151815260200191508051906020019080838360005b83811015611ffc578082015181840152602081019050611fe1565b50505050905090810190601f1680156120295780820380516001836020036101000a031916815260200191505b5094505050505060405180910390a15050505050565b600080848487604051602001808473ffffffffffffffffffffffffffffffffffffffff1673ffffffffffffffffffffffffffffffffffffffff1660601b8152601401838152602001828152602001935050505060405160208183030381529060405280519060200120905060008060008881526020019081526020016000205490506000801b81141561213a576040517f08c379a00000000000000000000000000000000000000000000000000000000081526004018080602001828103825260138152602001807f6572726f725f626c6f636b4e6f74466f756e640000000000000000000000000081525060200191505060405180910390fd5b6121448285611499565b811492505050949350505050565b61215d8283836122cc565b5050565b60006020528060005260406000206000915090505481565b600260009054906101000a900473ffffffffffffffffffffffffffffffffffffffff1681565b600160009054906101000a900473ffffffffffffffffffffffffffffffffffffffff1673ffffffffffffffffffffffffffffffffffffffff163373ffffffffffffffffffffffffffffffffffffffff1614612262576040517f08c379a000000000000000000000000000000000000000000000000000000000815260040180806020018281038252600f8152602001807f6572726f725f6f6e6c794f776e6572000000000000000000000000000000000081525060200191505060405180910390fd5b80600260006101000a81548173ffffffffffffffffffffffffffffffffffffffff021916908373ffffffffffffffffffffffffffffffffffffffff16021790555050565b600760009054906101000a900473ffffffffffffffffffffffffffffffffffffffff1681565b60008111612342576040517f08c379a00000000000000000000000000000000000000000000000000000000081526004018080602001828103825260128152602001807f6572726f725f7a65726f5769746864726177000000000000000000000000000081525060200191505060405180910390fd5b600061239682600b60008673ffffffffffffffffffffffffffffffffffffffff1673ffffffffffffffffffffffffffffffffffffffff16815260200190815260200160002054612a9290919063ffffffff16565b9050600a60008473ffffffffffffffffffffffffffffffffffffffff1673ffffffffffffffffffffffffffffffffffffffff1681526020019081526020016000205481111561244d576040517f08c379a000000000000000000000000000000000000000000000000000000000815260040180806020018281038252600f8152602001807f6572726f725f6f7665726472616674000000000000000000000000000000000081525060200191505060405180910390fd5b80600b60008573ffffffffffffffffffffffffffffffffffffffff1673ffffffffffffffffffffffffffffffffffffffff168152602001908152602001600020819055506124a682600854612a9290919063ffffffff16565b600881905550600760009054906101000a900473ffffffffffffffffffffffffffffffffffffffff1673ffffffffffffffffffffffffffffffffffffffff1663a9059cbb85846040518363ffffffff1660e01b8152600401808373ffffffffffffffffffffffffffffffffffffffff1673ffffffffffffffffffffffffffffffffffffffff16815260200182815260200192505050602060405180830381600087803b15801561255557600080fd5b505af1158015612569573d6000803e3d6000fd5b505050506040513d602081101561257f57600080fd5b8101908080519060200190929190505050612602576040517f08c379a000000000000000000000000000000000000000000000000000000000815260040180806020018281038252600e8152602001807f6572726f725f7472616e7366657200000000000000000000000000000000000081525060200191505060405180910390fd5b50505050565b600061264a83836040518060400160405280601e81526020017f536166654d6174683a207375627472616374696f6e206f766572666c6f770000815250612b1a565b905092915050565b600060046000858152602001908152602001600020549050600354810142116126e3576040517f08c379a000000000000000000000000000000000000000000000000000000000815260040180806020018281038252600c8152602001807f6572726f725f66726f7a656e000000000000000000000000000000000000000081525060200191505060405180910390fd5b81600a60008573ffffffffffffffffffffffffffffffffffffffff1673ffffffffffffffffffffffffffffffffffffffff1681526020019081526020016000205410612797576040517f08c379a00000000000000000000000000000000000000000000000000000000081526004018080602001828103825260118152602001807f6572726f725f6f6c644561726e696e677300000000000000000000000000000081525060200191505060405180910390fd5b6127fd600a60008573ffffffffffffffffffffffffffffffffffffffff1673ffffffffffffffffffffffffffffffffffffffff168152602001908152602001600020546127ef84600954612a9290919063ffffffff16565b61260890919063ffffffff16565b600981905550600760009054906101000a900473ffffffffffffffffffffffffffffffffffffffff1673ffffffffffffffffffffffffffffffffffffffff166370a08231306040518263ffffffff1660e01b8152600401808273ffffffffffffffffffffffffffffffffffffffff1673ffffffffffffffffffffffffffffffffffffffff16815260200191505060206040518083038186803b1580156128a257600080fd5b505afa1580156128b6573d6000803e3d6000fd5b505050506040513d60208110156128cc57600080fd5b81019080805190602001909291905050506128f460085460095461260890919063ffffffff16565b1115612968576040517f08c379a00000000000000000000000000000000000000000000000000000000081526004018080602001828103825260148152602001807f6572726f725f6d697373696e6742616c616e636500000000000000000000000081525060200191505060405180910390fd5b81600a60008573ffffffffffffffffffffffffffffffffffffffff1673ffffffffffffffffffffffffffffffffffffffff1681526020019081526020016000208190555050505050565b600560009054906101000a900473ffffffffffffffffffffffffffffffffffffffff1673ffffffffffffffffffffffffffffffffffffffff163373ffffffffffffffffffffffffffffffffffffffff1614612a75576040517f08c379a00000000000000000000000000000000000000000000000000000000081526004018080602001828103825260128152602001807f6572726f725f6e6f745065726d6974746564000000000000000000000000000081525060200191505060405180910390fd5b426004600085815260200190815260200160002081905550505050565b600080828401905083811015612b10576040517f08c379a000000000000000000000000000000000000000000000000000000000815260040180806020018281038252601b8152602001807f536166654d6174683a206164646974696f6e206f766572666c6f77000000000081525060200191505060405180910390fd5b8091505092915050565b6000838311158290612bc7576040517f08c379a00000000000000000000000000000000000000000000000000000000081526004018080602001828103825283818151815260200191508051906020019080838360005b83811015612b8c578082015181840152602081019050612b71565b50505050905090810190601f168015612bb95780820380516001836020036101000a031916815260200191505b509250505060405180910390fd5b506000838503905080915050939250505056fea265627a7a72315820a24d1b390df1f05511c918657ef0859849931461bd3051d33a38ea53896f88bd64736f6c63430005100032",
  "source": "pragma solidity ^0.5.16;\n\nimport \"openzeppelin-solidity/contracts/math/SafeMath.sol\";\nimport \"openzeppelin-solidity/contracts/token/ERC20/IERC20.sol\";\n\nimport \"./BalanceVerifier.sol\";\nimport \"./Ownable.sol\";\n\n/**\n * Monoplasma that is managed by an owner, who also appoints a trusted (but verifiable) operator.\n * Owner should be able to add and remove recipients through an off-chain mechanism not specified here.\n */\ncontract Monoplasma is BalanceVerifier, Ownable {\n    using SafeMath for uint256;\n\n    event OperatorChanged(address indexed newOperator);\n    event AdminFeeChanged(uint adminFee);\n\n    /**\n     * Freeze period during which all participants should be able to\n     *   acquire the whole balance book from IPFS (or HTTP server, or elsewhere)\n     *   and validate that the published rootHash is correct.\n     * In case of incorrect rootHash, all members should issue withdrawals from the\n     *   latest block they have validated (that is older than blockFreezeSeconds).\n     * So: too short freeze period `+` bad availability `=>` ether (needlessly) spent withdrawing earnings.\n     *     Long freeze period `==` lag between purchase and withdrawal `=>` bad UX.\n     * Blocks older than blockFreezeSeconds can be used to withdraw funds.\n     */\n    uint public blockFreezeSeconds;\n\n    /**\n     * Block number => timestamp\n     * Publish time of a block, where the block freeze period starts from.\n     * Note that block number points to the block after which the root hash is calculated,\n     *   not the block where NewCommit was emitted (event must come later)\n     */\n    mapping (uint => uint) public blockTimestamp;\n\n    /// operator is the address who is allowed to commit the earnings\n    address public operator;\n\n    /// fee fraction = adminFee/10^18\n    uint public adminFee;\n\n    IERC20 public token;\n\n    /// track lifetime total of tokens withdrawn from contract\n    uint public totalWithdrawn;\n\n    /**\n     * Track lifetime total of earnings proven, as extra protection from malicious operator.\n     * The difference of what CAN be withdrawn and what HAS been withdrawn must be covered with tokens in contract,\n     *   in other words: `totalProven - totalWithdrawn <= token.balanceOf(this)`.\n     * This is to prevent a \"bank run\" situation where more earnings have been proven in the contract than there are tokens to cover them.\n     * Of course this only moves the \"bank run\" outside the contract, to a race to prove earnings,\n     *   but at least the contract should never go into a state where it couldn't cover what's been proven.\n     */\n    uint public totalProven;\n\n    /// earnings for which proof has been submitted\n    mapping (address => uint) public earnings;\n\n    /// earnings that have been sent out already\n    mapping (address => uint) public withdrawn;\n\n    constructor(address tokenAddress, uint blockFreezePeriodSeconds, uint initialAdminFee) public {\n        blockFreezeSeconds = blockFreezePeriodSeconds;\n        token = IERC20(tokenAddress);\n        operator = msg.sender;\n        setAdminFee(initialAdminFee);\n    }\n\n    /**\n     * Admin can appoint the operator.\n     * @param newOperator that is allowed to commit the off-chain balances\n     */\n    function setOperator(address newOperator) public onlyOwner {\n        operator = newOperator;\n        emit OperatorChanged(newOperator);\n    }\n\n    /**\n     * Admin fee as a fraction of revenue.\n     * Smart contract doesn't use it, it's here just for storing purposes.\n     * @param newAdminFee fixed-point decimal in the same way as ether: 50% === 0.5 ether === \"500000000000000000\"\n     */\n    function setAdminFee(uint newAdminFee) public onlyOwner {\n        require(newAdminFee <= 1 ether, \"error_adminFee\");\n        adminFee = newAdminFee;\n        emit AdminFeeChanged(adminFee);\n    }\n\n    /**\n     * Operator commits the off-chain balances.\n     * This starts the freeze period (measured from block.timestamp).\n     * See README under \"Threat model\" for discussion on safety of using \"now\".\n     * @param blockNumber after which balances were submitted\n     */\n    function onCommit(uint blockNumber, bytes32, string memory) internal {\n        require(msg.sender == operator, \"error_notPermitted\");\n        blockTimestamp[blockNumber] = now; // solium-disable-line security/no-block-members\n    }\n\n    /**\n     * Called from BalanceVerifier.prove.\n     * Prove can be called directly to withdraw less than the whole share,\n     *   or just \"cement\" the earnings so far into root chain even without withdrawing.\n     * Missing balance test is an extra layer of defense against fraudulent operator who tries to steal ALL tokens.\n     * If any member can exit within freeze period, that fraudulent commit will fail.\n     * Only earnings that have been committed longer than blockFreezeSeconds ago can be proven, see `onCommit`.\n     * See README under \"Threat model\" for discussion on safety of using \"now\".\n     * @param blockNumber after which balances were submitted in {onCommit}\n     * @param account whose earnings were successfully proven and updated\n     * @param newEarnings the updated total lifetime earnings\n     */\n    function onVerifySuccess(uint blockNumber, address account, uint newEarnings) internal {\n        uint blockFreezeStart = blockTimestamp[blockNumber];\n        require(now > blockFreezeStart + blockFreezeSeconds, \"error_frozen\"); // solium-disable-line security/no-block-members\n        require(earnings[account] < newEarnings, \"error_oldEarnings\");\n        totalProven = totalProven.add(newEarnings).sub(earnings[account]);\n        require(totalProven.sub(totalWithdrawn) <= token.balanceOf(address(this)), \"error_missingBalance\");\n        earnings[account] = newEarnings;\n    }\n\n    /**\n     * Prove and withdraw the whole revenue share from sidechain in one transaction.\n     * @param blockNumber of the commit that contains the earnings to verify\n     * @param totalEarnings in the off-chain balance book\n     * @param proof list of hashes to prove the totalEarnings\n     */\n    function withdrawAll(uint blockNumber, uint totalEarnings, bytes32[] calldata proof) external {\n        withdrawAllFor(msg.sender, blockNumber, totalEarnings, proof);\n    }\n\n    /**\n     * Prove and withdraw the whole revenue share on behalf of someone else.\n     * Validator needs to exit those it's watching out for, in case\n     *   it detects Operator malfunctioning.\n     * @param recipient the address we're proving and withdrawing to\n     * @param blockNumber of the commit that contains the earnings to verify\n     * @param totalEarnings in the off-chain balance book\n     * @param proof list of hashes to prove the totalEarnings\n     */\n    function withdrawAllFor(address recipient, uint blockNumber, uint totalEarnings, bytes32[] memory proof) public {\n        prove(blockNumber, recipient, totalEarnings, proof);\n        uint withdrawable = totalEarnings.sub(withdrawn[recipient]);\n        withdrawFor(recipient, withdrawable);\n    }\n\n    /**\n     * Prove and \"donate withdraw\" function that allows you to prove and transfer\n     *   your earnings to a another address in one transaction.\n     * @param recipient the address the tokens will be sent to (instead of msg.sender)\n     * @param blockNumber of the commit that contains the earnings to verify\n     * @param totalEarnings in the off-chain balance book\n     * @param proof list of hashes to prove the totalEarnings\n     */\n    function withdrawAllTo(address recipient, uint blockNumber, uint totalEarnings, bytes32[] calldata proof) external {\n        prove(blockNumber, msg.sender, totalEarnings, proof);\n        uint withdrawable = totalEarnings.sub(withdrawn[msg.sender]);\n        withdrawTo(recipient, withdrawable);\n    }\n\n    /**\n     * Prove and do an \"unlimited donate withdraw\" on behalf of someone else, to an address they've specified.\n     * Sponsored withdraw is paid by e.g. admin, but target account could be whatever the member specifies.\n     * The signature gives a \"blank cheque\" for admin to withdraw all tokens to `recipient` in the future,\n     *   and it's valid until next withdraw (and so can be nullified by withdrawing any amount).\n     * A new signature needs to be obtained for each subsequent future withdraw.\n     * @param recipient the address the tokens will be sent to (instead of `msg.sender`)\n     * @param signer whose earnings are being withdrawn\n     * @param signature from the community member, see `signatureIsValid` how signature generated for unlimited amount\n     * @param blockNumber of the commit that contains the earnings to verify\n     * @param totalEarnings in the off-chain balance book\n     * @param proof list of hashes to prove the totalEarnings\n     */\n    function withdrawAllToSigned(\n        address recipient,\n        address signer, bytes calldata signature,                       // signature arguments\n        uint blockNumber, uint totalEarnings, bytes32[] calldata proof  // proof arguments\n    )\n        external\n    {\n        require(signatureIsValid(recipient, signer, 0, signature), \"error_badSignature\");\n        prove(blockNumber, signer, totalEarnings, proof);\n        uint withdrawable = totalEarnings.sub(withdrawn[signer]);\n        _withdraw(recipient, signer, withdrawable);\n    }\n\n    /**\n     * Prove and do a \"donate withdraw\" on behalf of someone else, to an address they've specified.\n     * Sponsored withdraw is paid by e.g. admin, but target account could be whatever the member specifies.\n     * The signature is valid only for given amount of tokens that may be different from maximum withdrawable tokens.\n     * @param recipient the address the tokens will be sent to (instead of msg.sender)\n     * @param signer whose earnings are being withdrawn\n     * @param amount of tokens to withdraw\n     * @param signature from the community member, see `signatureIsValid` how it's generated\n     * @param blockNumber of the commit that contains the earnings to verify\n     * @param totalEarnings in the off-chain balance book\n     * @param proof list of hashes to prove the totalEarnings\n     */\n    function proveAndWithdrawToSigned(\n        address recipient,\n        address signer, uint amount, bytes calldata signature,          // signature arguments\n        uint blockNumber, uint totalEarnings, bytes32[] calldata proof  // proof arguments\n    )\n        external\n    {\n        require(signatureIsValid(recipient, signer, amount, signature), \"error_badSignature\");\n        prove(blockNumber, signer, totalEarnings, proof);\n        _withdraw(recipient, signer, amount);\n    }\n\n    /**\n     * Withdraw a specified amount of your own proven earnings (see `function prove`).\n     * @param amount of tokens to withdraw\n     */\n    function withdraw(uint amount) public {\n        _withdraw(msg.sender, msg.sender, amount);\n    }\n\n    /**\n     * Withdraw a specified amount on behalf of someone else.\n     * Validator needs to exit those it's watching out for, in case it detects Operator malfunctioning.\n     * @param recipient whose tokens will be withdrawn (instead of msg.sender)\n     * @param amount of tokens to withdraw\n     */\n    function withdrawFor(address recipient, uint amount) public {\n        _withdraw(recipient, recipient, amount);\n    }\n\n    /**\n     * \"Donate withdraw\":\n     * Withdraw and transfer proven earnings to a another address in one transaction,\n     *   instead of withdrawing and then transfering the tokens.\n     * @param recipient the address the tokens will be sent to (instead of `msg.sender`)\n     * @param amount of tokens to withdraw\n     */\n    function withdrawTo(address recipient, uint amount) public {\n        _withdraw(recipient, msg.sender, amount);\n    }\n\n    /**\n     * Signed \"donate withdraw\":\n     * Withdraw and transfer proven earnings to a third address on behalf of someone else.\n     * Sponsored withdraw is paid by e.g. admin, but target account could be whatever the member specifies.\n     * @param recipient of the tokens\n     * @param signer whose earnings are being withdrawn\n     * @param amount how much is authorized for withdrawing by the signature\n     * @param signature from the community member, see `signatureIsValid` how it's generated\n     */\n    function withdrawToSigned(address recipient, address signer, uint amount, bytes memory signature) public {\n        require(signatureIsValid(recipient, signer, amount, signature), \"error_badSignature\");\n        _withdraw(recipient, signer, amount);\n    }\n\n    /**\n     * Execute token withdrawal into specified recipient address from specified member account.\n     * To prevent \"bank runs\", it is up to the sidechain implementation to make sure that always:\n     * `sum of committed earnings <= token.balanceOf(this) + totalWithdrawn`.\n     * Smart contract can't verify that, because it can't see inside the commit hash.\n     * @param recipient of the tokens\n     * @param account whose earnings are being debited\n     * @param amount of tokens that is sent out\n     */\n    function _withdraw(address recipient, address account, uint amount) internal {\n        require(amount > 0, \"error_zeroWithdraw\");\n        uint w = withdrawn[account].add(amount);\n        require(w <= earnings[account], \"error_overdraft\");\n        withdrawn[account] = w;\n        totalWithdrawn = totalWithdrawn.add(amount);\n        require(token.transfer(recipient, amount), \"error_transfer\");\n    }\n\n    /**\n     * Check signature from a member authorizing withdrawing its earnings to another account.\n     * Throws if the signature is badly formatted or doesn't match the given signer and amount.\n     * Signature has parts the act as replay protection:\n     * 1) `address(this)`: signature can't be used for other contracts;\n     * 2) `withdrawn[signer]`: signature only works once (for unspecified amount), and can be \"cancelled\" by sending a withdraw tx.\n     * Generated in Javascript with: `web3.eth.accounts.sign(recipientAddress + amount.toString(16, 64) + contractAddress.slice(2) + withdrawnTokens.toString(16, 64), signerPrivateKey)`,\n     * or for unlimited amount: `web3.eth.accounts.sign(recipientAddress + \"0\".repeat(64) + contractAddress.slice(2) + withdrawnTokens.toString(16, 64), signerPrivateKey)`.\n     * @param recipient of the tokens\n     * @param signer whose earnings are being withdrawn\n     * @param amount how much is authorized for withdraw, or zero for unlimited (withdrawAll)\n     * @param signature byte array from `web3.eth.accounts.sign`\n     * @return true iff signer of the authorization (member whose earnings are going to be withdrawn) matches the signature\n     */\n    function signatureIsValid(address recipient, address signer, uint amount, bytes memory signature) public view returns (bool isValid) {\n        require(signature.length == 65, \"error_badSignatureLength\");\n\n        bytes32 r; bytes32 s; uint8 v;\n        assembly {      // solium-disable-line security/no-inline-assembly\n            r := mload(add(signature, 32))\n            s := mload(add(signature, 64))\n            v := byte(0, mload(add(signature, 96)))\n        }\n        if (v < 27) {\n            v += 27;\n        }\n        require(v == 27 || v == 28, \"error_badSignatureVersion\");\n\n        // When changing the message, remember to double-check that message length is correct!\n        bytes32 messageHash = keccak256(abi.encodePacked(\n            \"\\x19Ethereum Signed Message:\\n104\", recipient, amount, address(this), withdrawn[signer]));\n        address calculatedSigner = ecrecover(messageHash, v, r, s);\n\n        return calculatedSigner == signer;\n    }\n}\n",
  "sourcePath": "monoplasma/contracts/Monoplasma.sol",
  "compiler": {
    "name": "solc",
    "version": "0.5.16+commit.9c3226ce.Emscripten.clang",
    "optimizer": false,
    "runs": 200
  },
  "schemaVersion": "2.2.4",
  "updatedAt": "2020-03-23T12:45:50.236Z"
}