{
  "contractName": "Monoplasma",
  "abi": [
    {
      "constant": false,
      "inputs": [
        {
          "name": "blockNumber",
          "type": "uint256"
        },
        {
          "name": "account",
          "type": "address"
        },
        {
          "name": "balance",
          "type": "uint256"
        },
        {
          "name": "proof",
          "type": "bytes32[]"
        }
      ],
      "name": "prove",
      "outputs": [],
      "payable": false,
      "stateMutability": "nonpayable",
      "type": "function"
    },
    {
      "constant": true,
      "inputs": [],
      "name": "totalWithdrawn",
      "outputs": [
        {
          "name": "",
          "type": "uint256"
        }
      ],
      "payable": false,
      "stateMutability": "view",
      "type": "function"
    },
    {
      "constant": false,
      "inputs": [],
      "name": "claimOwnership",
      "outputs": [],
      "payable": false,
      "stateMutability": "nonpayable",
      "type": "function"
    },
    {
      "constant": true,
      "inputs": [
        {
          "name": "",
          "type": "address"
        }
      ],
      "name": "earnings",
      "outputs": [
        {
          "name": "",
          "type": "uint256"
        }
      ],
      "payable": false,
      "stateMutability": "view",
      "type": "function"
    },
    {
      "constant": true,
      "inputs": [],
      "name": "operator",
      "outputs": [
        {
          "name": "",
          "type": "address"
        }
      ],
      "payable": false,
      "stateMutability": "view",
      "type": "function"
    },
    {
      "constant": true,
      "inputs": [
        {
          "name": "hash",
          "type": "bytes32"
        },
        {
          "name": "others",
          "type": "bytes32[]"
        }
      ],
      "name": "calculateRootHash",
      "outputs": [
        {
          "name": "root",
          "type": "bytes32"
        }
      ],
      "payable": false,
      "stateMutability": "pure",
      "type": "function"
    },
    {
      "constant": true,
      "inputs": [
        {
          "name": "",
          "type": "address"
        }
      ],
      "name": "withdrawn",
      "outputs": [
        {
          "name": "",
          "type": "uint256"
        }
      ],
      "payable": false,
      "stateMutability": "view",
      "type": "function"
    },
    {
      "constant": true,
      "inputs": [],
      "name": "blockFreezeSeconds",
      "outputs": [
        {
          "name": "",
          "type": "uint256"
        }
      ],
      "payable": false,
      "stateMutability": "view",
      "type": "function"
    },
    {
      "constant": true,
      "inputs": [
        {
          "name": "",
          "type": "uint256"
        }
      ],
      "name": "blockTimestamp",
      "outputs": [
        {
          "name": "",
          "type": "uint256"
        }
      ],
      "payable": false,
      "stateMutability": "view",
      "type": "function"
    },
    {
      "constant": true,
      "inputs": [
        {
          "name": "",
          "type": "uint256"
        }
      ],
      "name": "blockHash",
      "outputs": [
        {
          "name": "",
          "type": "bytes32"
        }
      ],
      "payable": false,
      "stateMutability": "view",
      "type": "function"
    },
    {
      "constant": true,
      "inputs": [],
      "name": "owner",
      "outputs": [
        {
          "name": "",
          "type": "address"
        }
      ],
      "payable": false,
      "stateMutability": "view",
      "type": "function"
    },
    {
      "constant": true,
      "inputs": [],
      "name": "adminFee",
      "outputs": [
        {
          "name": "",
          "type": "uint256"
        }
      ],
      "payable": false,
      "stateMutability": "view",
      "type": "function"
    },
    {
      "constant": true,
      "inputs": [],
      "name": "totalProven",
      "outputs": [
        {
          "name": "",
          "type": "uint256"
        }
      ],
      "payable": false,
      "stateMutability": "view",
      "type": "function"
    },
    {
      "constant": false,
      "inputs": [
        {
          "name": "blockNumber",
          "type": "uint256"
        },
        {
          "name": "rootHash",
          "type": "bytes32"
        },
        {
          "name": "ipfsHash",
          "type": "string"
        }
      ],
      "name": "commit",
      "outputs": [],
      "payable": false,
      "stateMutability": "nonpayable",
      "type": "function"
    },
    {
      "constant": true,
      "inputs": [
        {
          "name": "blockNumber",
          "type": "uint256"
        },
        {
          "name": "account",
          "type": "address"
        },
        {
          "name": "balance",
          "type": "uint256"
        },
        {
          "name": "proof",
          "type": "bytes32[]"
        }
      ],
      "name": "proofIsCorrect",
      "outputs": [
        {
          "name": "",
          "type": "bool"
        }
      ],
      "payable": false,
      "stateMutability": "view",
      "type": "function"
    },
    {
      "constant": true,
      "inputs": [],
      "name": "pendingOwner",
      "outputs": [
        {
          "name": "",
          "type": "address"
        }
      ],
      "payable": false,
      "stateMutability": "view",
      "type": "function"
    },
    {
      "constant": false,
      "inputs": [
        {
          "name": "newOwner",
          "type": "address"
        }
      ],
      "name": "transferOwnership",
      "outputs": [],
      "payable": false,
      "stateMutability": "nonpayable",
      "type": "function"
    },
    {
      "constant": true,
      "inputs": [],
      "name": "token",
      "outputs": [
        {
          "name": "",
          "type": "address"
        }
      ],
      "payable": false,
      "stateMutability": "view",
      "type": "function"
    },
    {
      "inputs": [
        {
          "name": "tokenAddress",
          "type": "address"
        },
        {
          "name": "blockFreezePeriodSeconds",
          "type": "uint256"
        },
        {
          "name": "_adminFee",
          "type": "uint256"
        }
      ],
      "payable": false,
      "stateMutability": "nonpayable",
      "type": "constructor"
    },
    {
      "anonymous": false,
      "inputs": [
        {
          "indexed": true,
          "name": "newOperator",
          "type": "address"
        }
      ],
      "name": "OperatorChanged",
      "type": "event"
    },
    {
      "anonymous": false,
      "inputs": [
        {
          "indexed": false,
          "name": "adminFee",
          "type": "uint256"
        }
      ],
      "name": "AdminFeeChanged",
      "type": "event"
    },
    {
      "anonymous": false,
      "inputs": [
        {
          "indexed": true,
          "name": "previousOwner",
          "type": "address"
        },
        {
          "indexed": true,
          "name": "newOwner",
          "type": "address"
        }
      ],
      "name": "OwnershipTransferred",
      "type": "event"
    },
    {
      "anonymous": false,
      "inputs": [
        {
          "indexed": false,
          "name": "blockNumber",
          "type": "uint256"
        },
        {
          "indexed": false,
          "name": "rootHash",
          "type": "bytes32"
        },
        {
          "indexed": false,
          "name": "ipfsHash",
          "type": "string"
        }
      ],
      "name": "BlockCreated",
      "type": "event"
    },
    {
      "constant": false,
      "inputs": [
        {
          "name": "newOperator",
          "type": "address"
        }
      ],
      "name": "setOperator",
      "outputs": [],
      "payable": false,
      "stateMutability": "nonpayable",
      "type": "function"
    },
    {
      "constant": false,
      "inputs": [
        {
          "name": "_adminFee",
          "type": "uint256"
        }
      ],
      "name": "setAdminFee",
      "outputs": [],
      "payable": false,
      "stateMutability": "nonpayable",
      "type": "function"
    },
    {
      "constant": false,
      "inputs": [
        {
          "name": "blockNumber",
          "type": "uint256"
        },
        {
          "name": "totalEarnings",
          "type": "uint256"
        },
        {
          "name": "proof",
          "type": "bytes32[]"
        }
      ],
      "name": "withdrawAll",
      "outputs": [],
      "payable": false,
      "stateMutability": "nonpayable",
      "type": "function"
    },
    {
      "constant": false,
      "inputs": [
        {
          "name": "recipient",
          "type": "address"
        },
        {
          "name": "blockNumber",
          "type": "uint256"
        },
        {
          "name": "totalEarnings",
          "type": "uint256"
        },
        {
          "name": "proof",
          "type": "bytes32[]"
        }
      ],
      "name": "withdrawAllFor",
      "outputs": [],
      "payable": false,
      "stateMutability": "nonpayable",
      "type": "function"
    },
    {
      "constant": false,
      "inputs": [
        {
          "name": "recipient",
          "type": "address"
        },
        {
          "name": "blockNumber",
          "type": "uint256"
        },
        {
          "name": "totalEarnings",
          "type": "uint256"
        },
        {
          "name": "proof",
          "type": "bytes32[]"
        }
      ],
      "name": "withdrawAllTo",
      "outputs": [],
      "payable": false,
      "stateMutability": "nonpayable",
      "type": "function"
    },
    {
      "constant": false,
      "inputs": [
        {
          "name": "amount",
          "type": "uint256"
        }
      ],
      "name": "withdraw",
      "outputs": [],
      "payable": false,
      "stateMutability": "nonpayable",
      "type": "function"
    },
    {
      "constant": false,
      "inputs": [
        {
          "name": "recipient",
          "type": "address"
        },
        {
          "name": "amount",
          "type": "uint256"
        }
      ],
      "name": "withdrawFor",
      "outputs": [],
      "payable": false,
      "stateMutability": "nonpayable",
      "type": "function"
    },
    {
      "constant": false,
      "inputs": [
        {
          "name": "recipient",
          "type": "address"
        },
        {
          "name": "account",
          "type": "address"
        },
        {
          "name": "amount",
          "type": "uint256"
        }
      ],
      "name": "withdrawTo",
      "outputs": [],
      "payable": false,
      "stateMutability": "nonpayable",
      "type": "function"
    }
  ],
  "bytecode": "0x608060405234801561001057600080fd5b50604051606080620022ef83398101806040528101908080519060200190929190805190602001909291908051906020019092919050505033600160006101000a81548173ffffffffffffffffffffffffffffffffffffffff021916908373ffffffffffffffffffffffffffffffffffffffff1602179055508160038190555082600760006101000a81548173ffffffffffffffffffffffffffffffffffffffff021916908373ffffffffffffffffffffffffffffffffffffffff16021790555033600560006101000a81548173ffffffffffffffffffffffffffffffffffffffff021916908373ffffffffffffffffffffffffffffffffffffffff16021790555061012a81610132640100000000026401000000009004565b5050506102e0565b600160009054906101000a900473ffffffffffffffffffffffffffffffffffffffff1673ffffffffffffffffffffffffffffffffffffffff163373ffffffffffffffffffffffffffffffffffffffff161415156101f7576040517f08c379a00000000000000000000000000000000000000000000000000000000081526004018080602001828103825260098152602001807f6f6e6c794f776e6572000000000000000000000000000000000000000000000081525060200191505060405180910390fd5b670de0b6b3a76400006006541115151561029f576040517f08c379a00000000000000000000000000000000000000000000000000000000081526004018080602001828103825260228152602001807f41646d696e206665652063616e6e6f742062652067726561746572207468616e81526020017f203100000000000000000000000000000000000000000000000000000000000081525060400191505060405180910390fd5b806006819055507f11a80b766155f9b8f16a7da44d66269fd694cb1c247f4814244586f68dd53487816040518082815260200191505060405180910390a150565b611fff80620002f06000396000f300608060405260043610610154576000357c0100000000000000000000000000000000000000000000000000000000900463ffffffff168063270231cc146101595780632e1a7d4d146101c857806332ef2b24146101f55780634942e4cf1461028f5780634b319713146102de5780634e71e0c814610309578063543fd31314610320578063570ca735146103775780636c7a9d24146103ce5780636dd4a7c9146104685780636ef61092146104f857806371b150131461054f57806373d8903b1461057a57806385df51fd146105bb5780638beb60b6146106045780638da5cb5b14610631578063a0be06f914610688578063b3ab15fb146106b3578063b74d784e146106f6578063c3ac610d14610721578063c3b35a7e14610774578063cb9b51c8146107e1578063db518db214610893578063e30c3978146108e0578063f2fde38b14610937578063fc0c546a1461097a575b600080fd5b34801561016557600080fd5b506101c6600480360381019080803573ffffffffffffffffffffffffffffffffffffffff16906020019092919080359060200190929190803590602001909291908035906020019082018035906020019190919293919293905050506109d1565b005b3480156101d457600080fd5b506101f360048036038101908080359060200190929190505050610a75565b005b34801561020157600080fd5b5061028d60048036038101908080359060200190929190803573ffffffffffffffffffffffffffffffffffffffff1690602001909291908035906020019092919080359060200190820180359060200190808060200260200160405190810160405280939291908181526020018383602002808284378201915050505050509192919290505050610a83565b005b34801561029b57600080fd5b506102dc6004803603810190808035906020019092919080359060200190929190803590602001908201803590602001919091929391929390505050610b14565b005b3480156102ea57600080fd5b506102f3610b55565b6040518082815260200191505060405180910390f35b34801561031557600080fd5b5061031e610b5b565b005b34801561032c57600080fd5b50610361600480360381019080803573ffffffffffffffffffffffffffffffffffffffff169060200190929190505050610d65565b6040518082815260200191505060405180910390f35b34801561038357600080fd5b5061038c610d7d565b604051808273ffffffffffffffffffffffffffffffffffffffff1673ffffffffffffffffffffffffffffffffffffffff16815260200191505060405180910390f35b3480156103da57600080fd5b50610466600480360381019080803573ffffffffffffffffffffffffffffffffffffffff169060200190929190803590602001909291908035906020019092919080359060200190820180359060200190808060200260200160405190810160405280939291908181526020018383602002808284378201915050505050509192919290505050610da3565b005b34801561047457600080fd5b506104da600480360381019080803560001916906020019092919080359060200190820180359060200190808060200260200160405190810160405280939291908181526020018383602002808284378201915050505050509192919290505050610e17565b60405180826000191660001916815260200191505060405180910390f35b34801561050457600080fd5b50610539600480360381019080803573ffffffffffffffffffffffffffffffffffffffff169060200190929190505050610fc6565b6040518082815260200191505060405180910390f35b34801561055b57600080fd5b50610564610fde565b6040518082815260200191505060405180910390f35b34801561058657600080fd5b506105a560048036038101908080359060200190929190505050610fe4565b6040518082815260200191505060405180910390f35b3480156105c757600080fd5b506105e660048036038101908080359060200190929190505050610ffc565b60405180826000191660001916815260200191505060405180910390f35b34801561061057600080fd5b5061062f60048036038101908080359060200190929190505050611014565b005b34801561063d57600080fd5b506106466111c2565b604051808273ffffffffffffffffffffffffffffffffffffffff1673ffffffffffffffffffffffffffffffffffffffff16815260200191505060405180910390f35b34801561069457600080fd5b5061069d6111e8565b6040518082815260200191505060405180910390f35b3480156106bf57600080fd5b506106f4600480360381019080803573ffffffffffffffffffffffffffffffffffffffff1690602001909291905050506111ee565b005b34801561070257600080fd5b5061070b61133a565b6040518082815260200191505060405180910390f35b34801561072d57600080fd5b50610772600480360381019080803590602001909291908035600019169060200190929190803590602001908201803590602001919091929391929390505050611340565b005b34801561078057600080fd5b506107df600480360381019080803573ffffffffffffffffffffffffffffffffffffffff169060200190929190803573ffffffffffffffffffffffffffffffffffffffff169060200190929190803590602001909291905050506114e9565b005b3480156107ed57600080fd5b5061087960048036038101908080359060200190929190803573ffffffffffffffffffffffffffffffffffffffff1690602001909291908035906020019092919080359060200190820180359060200190808060200260200160405190810160405280939291908181526020018383602002808284378201915050505050509192919290505050611846565b604051808215151515815260200191505060405180910390f35b34801561089f57600080fd5b506108de600480360381019080803573ffffffffffffffffffffffffffffffffffffffff169060200190929190803590602001909291905050506119c7565b005b3480156108ec57600080fd5b506108f56119d6565b604051808273ffffffffffffffffffffffffffffffffffffffff1673ffffffffffffffffffffffffffffffffffffffff16815260200191505060405180910390f35b34801561094357600080fd5b50610978600480360381019080803573ffffffffffffffffffffffffffffffffffffffff1690602001909291905050506119fc565b005b34801561098657600080fd5b5061098f611b05565b604051808273ffffffffffffffffffffffffffffffffffffffff1673ffffffffffffffffffffffffffffffffffffffff16815260200191505060405180910390f35b6000610a0e853386868680806020026020016040519081016040528093929190818152602001838360200280828437820191505050505050610a83565b610a60600960003373ffffffffffffffffffffffffffffffffffffffff1673ffffffffffffffffffffffffffffffffffffffff1681526020019081526020016000205485611b2b90919063ffffffff16565b9050610a6d8633836114e9565b505050505050565b610a803333836114e9565b50565b610a8f84848484611846565b1515610b03576040517f08c379a000000000000000000000000000000000000000000000000000000000815260040180806020018281038252600b8152602001807f6572726f725f70726f6f6600000000000000000000000000000000000000000081525060200191505060405180910390fd5b610b0e848484611b4c565b50505050565b610b4f338585858580806020026020016040519081016040528093929190818152602001838360200280828437820191505050505050610da3565b50505050565b600a5481565b600260009054906101000a900473ffffffffffffffffffffffffffffffffffffffff1673ffffffffffffffffffffffffffffffffffffffff163373ffffffffffffffffffffffffffffffffffffffff16141515610c20576040517f08c379a00000000000000000000000000000000000000000000000000000000081526004018080602001828103825260108152602001807f6f6e6c7950656e64696e674f776e65720000000000000000000000000000000081525060200191505060405180910390fd5b600260009054906101000a900473ffffffffffffffffffffffffffffffffffffffff1673ffffffffffffffffffffffffffffffffffffffff16600160009054906101000a900473ffffffffffffffffffffffffffffffffffffffff1673ffffffffffffffffffffffffffffffffffffffff167f8be0079c531659141344cd1fd0a4f28419497f9722a3daafe3b4186f6b6457e060405160405180910390a3600260009054906101000a900473ffffffffffffffffffffffffffffffffffffffff16600160006101000a81548173ffffffffffffffffffffffffffffffffffffffff021916908373ffffffffffffffffffffffffffffffffffffffff1602179055506000600260006101000a81548173ffffffffffffffffffffffffffffffffffffffff021916908373ffffffffffffffffffffffffffffffffffffffff160217905550565b60086020528060005260406000206000915090505481565b600560009054906101000a900473ffffffffffffffffffffffffffffffffffffffff1681565b6000610db184868585610a83565b610e03600960008773ffffffffffffffffffffffffffffffffffffffff1673ffffffffffffffffffffffffffffffffffffffff1681526020019081526020016000205484611b2b90919063ffffffff16565b9050610e108586836114e9565b5050505050565b6000806000849250600091505b83518260ff161015610fbe57838260ff16815181101515610e4157fe5b906020019060200201519050600060010281600019161415610e6257610fb1565b806000191683600019161015610f135782816040516020018083600019166000191681526020018260001916600019168152602001925050506040516020818303038152906040526040518082805190602001908083835b602083101515610edf5780518252602082019150602081019050602083039250610eba565b6001836020036101000a03801982511681845116808217855250505050505090500191505060405180910390209250610fb0565b80836040516020018083600019166000191681526020018260001916600019168152602001925050506040516020818303038152906040526040518082805190602001908083835b602083101515610f805780518252602082019150602081019050602083039250610f5b565b6001836020036101000a038019825116818451168082178552505050505050905001915050604051809103902092505b5b8180600101925050610e24565b505092915050565b60096020528060005260406000206000915090505481565b60035481565b60046020528060005260406000206000915090505481565b60006020528060005260406000206000915090505481565b600160009054906101000a900473ffffffffffffffffffffffffffffffffffffffff1673ffffffffffffffffffffffffffffffffffffffff163373ffffffffffffffffffffffffffffffffffffffff161415156110d9576040517f08c379a00000000000000000000000000000000000000000000000000000000081526004018080602001828103825260098152602001807f6f6e6c794f776e6572000000000000000000000000000000000000000000000081525060200191505060405180910390fd5b670de0b6b3a764000060065411151515611181576040517f08c379a00000000000000000000000000000000000000000000000000000000081526004018080602001828103825260228152602001807f41646d696e206665652063616e6e6f742062652067726561746572207468616e81526020017f203100000000000000000000000000000000000000000000000000000000000081525060400191505060405180910390fd5b806006819055507f11a80b766155f9b8f16a7da44d66269fd694cb1c247f4814244586f68dd53487816040518082815260200191505060405180910390a150565b600160009054906101000a900473ffffffffffffffffffffffffffffffffffffffff1681565b60065481565b600160009054906101000a900473ffffffffffffffffffffffffffffffffffffffff1673ffffffffffffffffffffffffffffffffffffffff163373ffffffffffffffffffffffffffffffffffffffff161415156112b3576040517f08c379a00000000000000000000000000000000000000000000000000000000081526004018080602001828103825260098152602001807f6f6e6c794f776e6572000000000000000000000000000000000000000000000081525060200191505060405180910390fd5b80600560006101000a81548173ffffffffffffffffffffffffffffffffffffffff021916908373ffffffffffffffffffffffffffffffffffffffff1602179055508073ffffffffffffffffffffffffffffffffffffffff167f4721129e0e676ed6a92909bb24e853ccdd63ad72280cc2e974e38e480e0e6e5460405160405180910390a250565b600b5481565b6060600060010260008087815260200190815260200160002054600019161415156113d3576040517f08c379a000000000000000000000000000000000000000000000000000000000815260040180806020018281038252600f8152602001807f6572726f725f6f7665727772697465000000000000000000000000000000000081525060200191505060405180910390fd5b82828080601f0160208091040260200160405190810160405280939291908181526020018383808284378201915050505050509050611413858583611ed0565b8360008087815260200190815260200160002081600019169055507f4268b0369742123cb8066ef715ccf53f3f1f710b5894e43e1ba1d159ed64e4c185858360405180848152602001836000191660001916815260200180602001828103825283818151815260200191508051906020019080838360005b838110156114a657808201518184015260208101905061148b565b50505050905090810190601f1680156114d35780820380516001836020036101000a031916815260200191505b5094505050505060405180910390a15050505050565b60008082111515611562576040517f08c379a00000000000000000000000000000000000000000000000000000000081526004018080602001828103825260128152602001807f6572726f725f7a65726f5769746864726177000000000000000000000000000081525060200191505060405180910390fd5b6115b482600960008673ffffffffffffffffffffffffffffffffffffffff1673ffffffffffffffffffffffffffffffffffffffff16815260200190815260200160002054611fb290919063ffffffff16565b9050600860008473ffffffffffffffffffffffffffffffffffffffff1673ffffffffffffffffffffffffffffffffffffffff16815260200190815260200160002054811115151561166d576040517f08c379a000000000000000000000000000000000000000000000000000000000815260040180806020018281038252600f8152602001807f6572726f725f6f7665726472616674000000000000000000000000000000000081525060200191505060405180910390fd5b80600960008573ffffffffffffffffffffffffffffffffffffffff1673ffffffffffffffffffffffffffffffffffffffff168152602001908152602001600020819055506116c682600a54611fb290919063ffffffff16565b600a81905550600760009054906101000a900473ffffffffffffffffffffffffffffffffffffffff1673ffffffffffffffffffffffffffffffffffffffff1663a9059cbb85846040518363ffffffff167c0100000000000000000000000000000000000000000000000000000000028152600401808373ffffffffffffffffffffffffffffffffffffffff1673ffffffffffffffffffffffffffffffffffffffff16815260200182815260200192505050602060405180830381600087803b15801561179157600080fd5b505af11580156117a5573d6000803e3d6000fd5b505050506040513d60208110156117bb57600080fd5b81019080805190602001909291905050501515611840576040517f08c379a000000000000000000000000000000000000000000000000000000000815260040180806020018281038252600e8152602001807f6572726f725f7472616e7366657200000000000000000000000000000000000081525060200191505060405180910390fd5b50505050565b60008060008585604051602001808373ffffffffffffffffffffffffffffffffffffffff1673ffffffffffffffffffffffffffffffffffffffff166c01000000000000000000000000028152601401828152602001925050506040516020818303038152906040526040518082805190602001908083835b6020831015156118e357805182526020820191506020810190506020830392506118be565b6001836020036101000a0380198251168184511680821785525050505050509050019150506040518091039020915060008088815260200190815260200160002054905060006001028160001916141515156119a7576040517f08c379a00000000000000000000000000000000000000000000000000000000081526004018080602001828103825260138152602001807f6572726f725f626c6f636b4e6f74466f756e640000000000000000000000000081525060200191505060405180910390fd5b6119b18285610e17565b6000191681600019161492505050949350505050565b6119d28283836114e9565b5050565b600260009054906101000a900473ffffffffffffffffffffffffffffffffffffffff1681565b600160009054906101000a900473ffffffffffffffffffffffffffffffffffffffff1673ffffffffffffffffffffffffffffffffffffffff163373ffffffffffffffffffffffffffffffffffffffff16141515611ac1576040517f08c379a00000000000000000000000000000000000000000000000000000000081526004018080602001828103825260098152602001807f6f6e6c794f776e6572000000000000000000000000000000000000000000000081525060200191505060405180910390fd5b80600260006101000a81548173ffffffffffffffffffffffffffffffffffffffff021916908373ffffffffffffffffffffffffffffffffffffffff16021790555050565b600760009054906101000a900473ffffffffffffffffffffffffffffffffffffffff1681565b600080838311151515611b3d57600080fd5b82840390508091505092915050565b600060046000858152602001908152602001600020549050600354810142111515611bdf576040517f08c379a000000000000000000000000000000000000000000000000000000000815260040180806020018281038252600c8152602001807f6572726f725f66726f7a656e000000000000000000000000000000000000000081525060200191505060405180910390fd5b81600860008573ffffffffffffffffffffffffffffffffffffffff1673ffffffffffffffffffffffffffffffffffffffff16815260200190815260200160002054101515611c95576040517f08c379a00000000000000000000000000000000000000000000000000000000081526004018080602001828103825260118152602001807f6572726f725f6f6c644561726e696e677300000000000000000000000000000081525060200191505060405180910390fd5b611cfb600860008573ffffffffffffffffffffffffffffffffffffffff1673ffffffffffffffffffffffffffffffffffffffff16815260200190815260200160002054611ced84600b54611fb290919063ffffffff16565b611b2b90919063ffffffff16565b600b81905550600760009054906101000a900473ffffffffffffffffffffffffffffffffffffffff1673ffffffffffffffffffffffffffffffffffffffff166370a08231306040518263ffffffff167c0100000000000000000000000000000000000000000000000000000000028152600401808273ffffffffffffffffffffffffffffffffffffffff1673ffffffffffffffffffffffffffffffffffffffff168152602001915050602060405180830381600087803b158015611dbe57600080fd5b505af1158015611dd2573d6000803e3d6000fd5b505050506040513d6020811015611de857600080fd5b8101908080519060200190929190505050611e10600a54600b54611b2b90919063ffffffff16565b11151515611e86576040517f08c379a00000000000000000000000000000000000000000000000000000000081526004018080602001828103825260148152602001807f6572726f725f6d697373696e6742616c616e636500000000000000000000000081525060200191505060405180910390fd5b81600860008573ffffffffffffffffffffffffffffffffffffffff1673ffffffffffffffffffffffffffffffffffffffff1681526020019081526020016000208190555050505050565b600560009054906101000a900473ffffffffffffffffffffffffffffffffffffffff1673ffffffffffffffffffffffffffffffffffffffff163373ffffffffffffffffffffffffffffffffffffffff16141515611f95576040517f08c379a00000000000000000000000000000000000000000000000000000000081526004018080602001828103825260128152602001807f6572726f725f6e6f745065726d6974746564000000000000000000000000000081525060200191505060405180910390fd5b426004600085815260200190815260200160002081905550505050565b6000808284019050838110151515611fc957600080fd5b80915050929150505600a165627a7a723058209c362f76347a6590411ea89eee721f3bb2161e6deefbdd2e5094baa86b7c3c370029",
  "source": "pragma solidity ^0.4.24;\n\nimport \"openzeppelin-solidity/contracts/math/SafeMath.sol\";\nimport \"openzeppelin-solidity/contracts/token/ERC20/IERC20.sol\";\n\nimport \"./BalanceVerifier.sol\";\nimport \"./Ownable.sol\";\n\n/**\n * Monoplasma that is managed by an owner, likely the side-chain operator\n * Owner can add and remove recipients.\n */\ncontract Monoplasma is BalanceVerifier, Ownable {\n    using SafeMath for uint256;\n\n    event OperatorChanged(address indexed newOperator);\n    event AdminFeeChanged(uint adminFee);\n    /**\n     * Freeze period during which all side-chain participants should be able to\n     *   acquire the whole balance book from IPFS (or HTTP server, or elsewhere)\n     *   and validate that the published rootHash is correct\n     * In case of incorrect rootHash, all members should issue withdrawals from the\n     *   latest block they have validated (that is older than blockFreezeSeconds)\n     * So: too short freeze period + bad availability => ether (needlessly) spent withdrawing earnings\n     *     long freeze period == lag between purchase and withdrawal => bad UX\n     * Blocks older than blockFreezeSeconds can be used to withdraw funds\n     */\n    uint public blockFreezeSeconds;\n\n    /**\n     * Block number => timestamp\n     * Publish time of a block, where the block freeze period starts from.\n     * Note that block number points to the block after which the root hash is calculated,\n     *   not the block where BlockCreated was emitted (event must come later)\n     */\n    mapping (uint => uint) public blockTimestamp;\n\n    address public operator;\n\n    //fee fraction = adminFee/10^18\n    uint public adminFee;\n\n    IERC20 public token;\n\n    mapping (address => uint) public earnings;      // earnings for which proof has been submitted\n    mapping (address => uint) public withdrawn;     // earnings that have been sent out already\n    uint public totalWithdrawn;\n    uint public totalProven;\n\n    constructor(address tokenAddress, uint blockFreezePeriodSeconds, uint _adminFee) public {\n        blockFreezeSeconds = blockFreezePeriodSeconds;\n        token = IERC20(tokenAddress);\n        operator = msg.sender;\n        setAdminFee(_adminFee);\n    }\n\n    function setOperator(address newOperator) public onlyOwner {\n        operator = newOperator;\n        emit OperatorChanged(newOperator);\n    }\n\n    /**\n     * Admin fee as a fraction of revenue\n     * Fixed-point decimal in the same way as ether: 50% === 0.5 ether\n     * Smart contract doesn't use it, it's here just for storing purposes\n     */\n    function setAdminFee(uint _adminFee) public onlyOwner {\n        require(adminFee <= 1 ether, \"Admin fee cannot be greater than 1\");\n        adminFee = _adminFee;\n        emit AdminFeeChanged(_adminFee);\n    }\n\n    /**\n     * Operator creates the side-chain blocks\n     */\n    function onCommit(uint blockNumber, bytes32, string) internal {\n        require(msg.sender == operator, \"error_notPermitted\");\n        blockTimestamp[blockNumber] = now;\n    }\n\n    /**\n     * Called from BalanceVerifier.prove\n     * Prove can be called directly to withdraw less than the whole share,\n     *   or just \"cement\" the earnings so far into root chain even without withdrawing\n     */\n    function onVerifySuccess(uint blockNumber, address account, uint newEarnings) internal {\n        uint blockFreezeStart = blockTimestamp[blockNumber];\n        require(now > blockFreezeStart + blockFreezeSeconds, \"error_frozen\");\n        require(earnings[account] < newEarnings, \"error_oldEarnings\");\n        totalProven = totalProven.add(newEarnings).sub(earnings[account]);\n        require(totalProven.sub(totalWithdrawn) <= token.balanceOf(this), \"error_missingBalance\");\n        earnings[account] = newEarnings;\n    }\n\n    /**\n     * Prove and withdraw the whole revenue share from sidechain in one transaction\n     * @param blockNumber of the leaf to verify\n     * @param totalEarnings in the side-chain\n     * @param proof list of hashes to prove the totalEarnings\n     */\n    function withdrawAll(uint blockNumber, uint totalEarnings, bytes32[] proof) external {\n        withdrawAllFor(msg.sender, blockNumber, totalEarnings, proof);\n    }\n\n    /**\n     * Prove and withdraw the whole revenue share for someone else\n     * Validator needs to exit those it's watching out for, in case\n     *   it detects Operator malfunctioning\n     * @param recipient the address we're proving and withdrawing\n     * @param blockNumber of the leaf to verify\n     * @param totalEarnings in the side-chain\n     * @param proof list of hashes to prove the totalEarnings\n     */\n    function withdrawAllFor(address recipient, uint blockNumber, uint totalEarnings, bytes32[] proof) public {\n        prove(blockNumber, recipient, totalEarnings, proof);\n        uint withdrawable = totalEarnings.sub(withdrawn[recipient]);\n        withdrawTo(recipient, recipient, withdrawable);\n    }\n\n    /**\n     * \"Donate withdraw\" function that allows you to prove and transfer\n     *   your earnings to a another address in one transaction\n     * @param recipient the address the tokens will be sent to (instead of msg.sender)\n     * @param blockNumber of the leaf to verify\n     * @param totalEarnings in the side-chain\n     * @param proof list of hashes to prove the totalEarnings\n     */\n    function withdrawAllTo(address recipient, uint blockNumber, uint totalEarnings, bytes32[] proof) external {\n        prove(blockNumber, msg.sender, totalEarnings, proof);\n        uint withdrawable = totalEarnings.sub(withdrawn[msg.sender]);\n        withdrawTo(recipient, msg.sender, withdrawable);\n    }\n\n    /**\n     * Withdraw a specified amount of your own proven earnings (see `function prove`)\n     */\n    function withdraw(uint amount) public {\n        withdrawTo(msg.sender, msg.sender, amount);\n    }\n\n    /**\n     * Do the withdrawal on behalf of someone else\n     * Validator needs to exit those it's watching out for, in case\n     *   it detects Operator malfunctioning\n     */\n    function withdrawFor(address recipient, uint amount) public {\n        withdrawTo(recipient, recipient, amount);\n    }\n\n    /**\n     * Execute token withdrawal into specified recipient address from specified member account\n     * @dev It is up to the sidechain implementation to make sure\n     * @dev  always token balance >= sum of earnings - sum of withdrawn\n     */\n    function withdrawTo(address recipient, address account, uint amount) public {\n        require(amount > 0, \"error_zeroWithdraw\");\n        uint w = withdrawn[account].add(amount);\n        require(w <= earnings[account], \"error_overdraft\");\n        withdrawn[account] = w;\n        totalWithdrawn = totalWithdrawn.add(amount);\n        require(token.transfer(recipient, amount), \"error_transfer\");\n    }\n}\n",
  "sourcePath": "monoplasma/contracts/Monoplasma.sol",
  "compiler": {
    "name": "solc",
    "version": "0.4.24+commit.e67f0147.Emscripten.clang",
    "optimizer": false,
    "runs": 200
  },
  "schemaVersion": "2.2.4",
  "updatedAt": "2020-02-11T15:41:16.276Z"
}