{
  "contractName": "Monoplasma",
  "abi": [
    {
      "constant": false,
      "inputs": [
        {
          "name": "blockNumber",
          "type": "uint256"
        },
        {
          "name": "account",
          "type": "address"
        },
        {
          "name": "balance",
          "type": "uint256"
        },
        {
          "name": "proof",
          "type": "bytes32[]"
        }
      ],
      "name": "prove",
      "outputs": [],
      "payable": false,
      "stateMutability": "nonpayable",
      "type": "function"
    },
    {
      "constant": true,
      "inputs": [],
      "name": "totalWithdrawn",
      "outputs": [
        {
          "name": "",
          "type": "uint256"
        }
      ],
      "payable": false,
      "stateMutability": "view",
      "type": "function"
    },
    {
      "constant": false,
      "inputs": [],
      "name": "claimOwnership",
      "outputs": [],
      "payable": false,
      "stateMutability": "nonpayable",
      "type": "function"
    },
    {
      "constant": true,
      "inputs": [
        {
          "name": "",
          "type": "address"
        }
      ],
      "name": "earnings",
      "outputs": [
        {
          "name": "",
          "type": "uint256"
        }
      ],
      "payable": false,
      "stateMutability": "view",
      "type": "function"
    },
    {
      "constant": true,
      "inputs": [],
      "name": "operator",
      "outputs": [
        {
          "name": "",
          "type": "address"
        }
      ],
      "payable": false,
      "stateMutability": "view",
      "type": "function"
    },
    {
      "constant": true,
      "inputs": [
        {
          "name": "hash",
          "type": "bytes32"
        },
        {
          "name": "others",
          "type": "bytes32[]"
        }
      ],
      "name": "calculateRootHash",
      "outputs": [
        {
          "name": "root",
          "type": "bytes32"
        }
      ],
      "payable": false,
      "stateMutability": "pure",
      "type": "function"
    },
    {
      "constant": true,
      "inputs": [
        {
          "name": "",
          "type": "address"
        }
      ],
      "name": "withdrawn",
      "outputs": [
        {
          "name": "",
          "type": "uint256"
        }
      ],
      "payable": false,
      "stateMutability": "view",
      "type": "function"
    },
    {
      "constant": true,
      "inputs": [],
      "name": "blockFreezeSeconds",
      "outputs": [
        {
          "name": "",
          "type": "uint256"
        }
      ],
      "payable": false,
      "stateMutability": "view",
      "type": "function"
    },
    {
      "constant": true,
      "inputs": [
        {
          "name": "",
          "type": "uint256"
        }
      ],
      "name": "blockTimestamp",
      "outputs": [
        {
          "name": "",
          "type": "uint256"
        }
      ],
      "payable": false,
      "stateMutability": "view",
      "type": "function"
    },
    {
      "constant": true,
      "inputs": [
        {
          "name": "",
          "type": "uint256"
        }
      ],
      "name": "blockHash",
      "outputs": [
        {
          "name": "",
          "type": "bytes32"
        }
      ],
      "payable": false,
      "stateMutability": "view",
      "type": "function"
    },
    {
      "constant": true,
      "inputs": [],
      "name": "owner",
      "outputs": [
        {
          "name": "",
          "type": "address"
        }
      ],
      "payable": false,
      "stateMutability": "view",
      "type": "function"
    },
    {
      "constant": true,
      "inputs": [],
      "name": "totalProven",
      "outputs": [
        {
          "name": "",
          "type": "uint256"
        }
      ],
      "payable": false,
      "stateMutability": "view",
      "type": "function"
    },
    {
      "constant": false,
      "inputs": [
        {
          "name": "blockNumber",
          "type": "uint256"
        },
        {
          "name": "rootHash",
          "type": "bytes32"
        },
        {
          "name": "ipfsHash",
          "type": "string"
        }
      ],
      "name": "commit",
      "outputs": [],
      "payable": false,
      "stateMutability": "nonpayable",
      "type": "function"
    },
    {
      "constant": true,
      "inputs": [
        {
          "name": "blockNumber",
          "type": "uint256"
        },
        {
          "name": "account",
          "type": "address"
        },
        {
          "name": "balance",
          "type": "uint256"
        },
        {
          "name": "proof",
          "type": "bytes32[]"
        }
      ],
      "name": "proofIsCorrect",
      "outputs": [
        {
          "name": "",
          "type": "bool"
        }
      ],
      "payable": false,
      "stateMutability": "view",
      "type": "function"
    },
    {
      "constant": true,
      "inputs": [],
      "name": "pendingOwner",
      "outputs": [
        {
          "name": "",
          "type": "address"
        }
      ],
      "payable": false,
      "stateMutability": "view",
      "type": "function"
    },
    {
      "constant": false,
      "inputs": [
        {
          "name": "newOwner",
          "type": "address"
        }
      ],
      "name": "transferOwnership",
      "outputs": [],
      "payable": false,
      "stateMutability": "nonpayable",
      "type": "function"
    },
    {
      "constant": true,
      "inputs": [],
      "name": "token",
      "outputs": [
        {
          "name": "",
          "type": "address"
        }
      ],
      "payable": false,
      "stateMutability": "view",
      "type": "function"
    },
    {
      "inputs": [
        {
          "name": "tokenAddress",
          "type": "address"
        },
        {
          "name": "blockFreezePeriodSeconds",
          "type": "uint256"
        }
      ],
      "payable": false,
      "stateMutability": "nonpayable",
      "type": "constructor"
    },
    {
      "anonymous": false,
      "inputs": [
        {
          "indexed": true,
          "name": "newOperator",
          "type": "address"
        }
      ],
      "name": "OperatorChanged",
      "type": "event"
    },
    {
      "anonymous": false,
      "inputs": [
        {
          "indexed": true,
          "name": "previousOwner",
          "type": "address"
        },
        {
          "indexed": true,
          "name": "newOwner",
          "type": "address"
        }
      ],
      "name": "OwnershipTransferred",
      "type": "event"
    },
    {
      "anonymous": false,
      "inputs": [
        {
          "indexed": false,
          "name": "blockNumber",
          "type": "uint256"
        },
        {
          "indexed": false,
          "name": "rootHash",
          "type": "bytes32"
        },
        {
          "indexed": false,
          "name": "ipfsHash",
          "type": "string"
        }
      ],
      "name": "BlockCreated",
      "type": "event"
    },
    {
      "constant": false,
      "inputs": [
        {
          "name": "newOperator",
          "type": "address"
        }
      ],
      "name": "setOperator",
      "outputs": [],
      "payable": false,
      "stateMutability": "nonpayable",
      "type": "function"
    },
    {
      "constant": false,
      "inputs": [
        {
          "name": "blockNumber",
          "type": "uint256"
        },
        {
          "name": "totalEarnings",
          "type": "uint256"
        },
        {
          "name": "proof",
          "type": "bytes32[]"
        }
      ],
      "name": "withdrawAll",
      "outputs": [],
      "payable": false,
      "stateMutability": "nonpayable",
      "type": "function"
    },
    {
      "constant": false,
      "inputs": [
        {
          "name": "recipient",
          "type": "address"
        },
        {
          "name": "blockNumber",
          "type": "uint256"
        },
        {
          "name": "totalEarnings",
          "type": "uint256"
        },
        {
          "name": "proof",
          "type": "bytes32[]"
        }
      ],
      "name": "withdrawAllFor",
      "outputs": [],
      "payable": false,
      "stateMutability": "nonpayable",
      "type": "function"
    },
    {
      "constant": false,
      "inputs": [
        {
          "name": "amount",
          "type": "uint256"
        }
      ],
      "name": "withdraw",
      "outputs": [],
      "payable": false,
      "stateMutability": "nonpayable",
      "type": "function"
    },
    {
      "constant": false,
      "inputs": [
        {
          "name": "recipient",
          "type": "address"
        },
        {
          "name": "amount",
          "type": "uint256"
        }
      ],
      "name": "withdrawFor",
      "outputs": [],
      "payable": false,
      "stateMutability": "nonpayable",
      "type": "function"
    }
  ],
  "bytecode": "0x608060405234801561001057600080fd5b50604051604080611d39833981018060405281019080805190602001909291908051906020019092919050505033600160006101000a81548173ffffffffffffffffffffffffffffffffffffffff021916908373ffffffffffffffffffffffffffffffffffffffff1602179055508060038190555081600a60006101000a81548173ffffffffffffffffffffffffffffffffffffffff021916908373ffffffffffffffffffffffffffffffffffffffff16021790555033600560006101000a81548173ffffffffffffffffffffffffffffffffffffffff021916908373ffffffffffffffffffffffffffffffffffffffff1602179055505050611c21806101186000396000f300608060405260043610610128576000357c0100000000000000000000000000000000000000000000000000000000900463ffffffff1680632e1a7d4d1461012d57806332ef2b241461015a5780634942e4cf146101f45780634b319713146102435780634e71e0c81461026e578063543fd31314610285578063570ca735146102dc5780636c7a9d24146103335780636dd4a7c9146103cd5780636ef610921461045d57806371b15013146104b457806373d8903b146104df57806385df51fd146105205780638da5cb5b14610569578063b3ab15fb146105c0578063b74d784e14610603578063c3ac610d1461062e578063cb9b51c814610681578063db518db214610733578063e30c397814610780578063f2fde38b146107d7578063fc0c546a1461081a575b600080fd5b34801561013957600080fd5b5061015860048036038101908080359060200190929190505050610871565b005b34801561016657600080fd5b506101f260048036038101908080359060200190929190803573ffffffffffffffffffffffffffffffffffffffff169060200190929190803590602001909291908035906020019082018035906020019080806020026020016040519081016040528093929190818152602001838360200280828437820191505050505050919291929050505061087e565b005b34801561020057600080fd5b50610241600480360381019080803590602001909291908035906020019092919080359060200190820180359060200191909192939192939050505061090f565b005b34801561024f57600080fd5b50610258610950565b6040518082815260200191505060405180910390f35b34801561027a57600080fd5b50610283610956565b005b34801561029157600080fd5b506102c6600480360381019080803573ffffffffffffffffffffffffffffffffffffffff169060200190929190505050610b60565b6040518082815260200191505060405180910390f35b3480156102e857600080fd5b506102f1610b78565b604051808273ffffffffffffffffffffffffffffffffffffffff1673ffffffffffffffffffffffffffffffffffffffff16815260200191505060405180910390f35b34801561033f57600080fd5b506103cb600480360381019080803573ffffffffffffffffffffffffffffffffffffffff169060200190929190803590602001909291908035906020019092919080359060200190820180359060200190808060200260200160405190810160405280939291908181526020018383602002808284378201915050505050509192919290505050610b9e565b005b3480156103d957600080fd5b5061043f600480360381019080803560001916906020019092919080359060200190820180359060200190808060200260200160405190810160405280939291908181526020018383602002808284378201915050505050509192919290505050610c11565b60405180826000191660001916815260200191505060405180910390f35b34801561046957600080fd5b5061049e600480360381019080803573ffffffffffffffffffffffffffffffffffffffff169060200190929190505050610dc0565b6040518082815260200191505060405180910390f35b3480156104c057600080fd5b506104c9610dd8565b6040518082815260200191505060405180910390f35b3480156104eb57600080fd5b5061050a60048036038101908080359060200190929190505050610dde565b6040518082815260200191505060405180910390f35b34801561052c57600080fd5b5061054b60048036038101908080359060200190929190505050610df6565b60405180826000191660001916815260200191505060405180910390f35b34801561057557600080fd5b5061057e610e0e565b604051808273ffffffffffffffffffffffffffffffffffffffff1673ffffffffffffffffffffffffffffffffffffffff16815260200191505060405180910390f35b3480156105cc57600080fd5b50610601600480360381019080803573ffffffffffffffffffffffffffffffffffffffff169060200190929190505050610e34565b005b34801561060f57600080fd5b50610618610f80565b6040518082815260200191505060405180910390f35b34801561063a57600080fd5b5061067f600480360381019080803590602001909291908035600019169060200190929190803590602001908201803590602001919091929391929390505050610f86565b005b34801561068d57600080fd5b5061071960048036038101908080359060200190929190803573ffffffffffffffffffffffffffffffffffffffff169060200190929190803590602001909291908035906020019082018035906020019080806020026020016040519081016040528093929190818152602001838360200280828437820191505050505050919291929050505061112f565b604051808215151515815260200191505060405180910390f35b34801561073f57600080fd5b5061077e600480360381019080803573ffffffffffffffffffffffffffffffffffffffff169060200190929190803590602001909291905050506112b0565b005b34801561078c57600080fd5b5061079561160c565b604051808273ffffffffffffffffffffffffffffffffffffffff1673ffffffffffffffffffffffffffffffffffffffff16815260200191505060405180910390f35b3480156107e357600080fd5b50610818600480360381019080803573ffffffffffffffffffffffffffffffffffffffff169060200190929190505050611632565b005b34801561082657600080fd5b5061082f61173b565b604051808273ffffffffffffffffffffffffffffffffffffffff1673ffffffffffffffffffffffffffffffffffffffff16815260200191505060405180910390f35b61087b33826112b0565b50565b61088a8484848461112f565b15156108fe576040517f08c379a000000000000000000000000000000000000000000000000000000000815260040180806020018281038252600b8152602001807f6572726f725f70726f6f6600000000000000000000000000000000000000000081525060200191505060405180910390fd5b610909848484611761565b50505050565b61094a338585858580806020026020016040519081016040528093929190818152602001838360200280828437820191505050505050610b9e565b50505050565b60085481565b600260009054906101000a900473ffffffffffffffffffffffffffffffffffffffff1673ffffffffffffffffffffffffffffffffffffffff163373ffffffffffffffffffffffffffffffffffffffff16141515610a1b576040517f08c379a00000000000000000000000000000000000000000000000000000000081526004018080602001828103825260108152602001807f6f6e6c7950656e64696e674f776e65720000000000000000000000000000000081525060200191505060405180910390fd5b600260009054906101000a900473ffffffffffffffffffffffffffffffffffffffff1673ffffffffffffffffffffffffffffffffffffffff16600160009054906101000a900473ffffffffffffffffffffffffffffffffffffffff1673ffffffffffffffffffffffffffffffffffffffff167f8be0079c531659141344cd1fd0a4f28419497f9722a3daafe3b4186f6b6457e060405160405180910390a3600260009054906101000a900473ffffffffffffffffffffffffffffffffffffffff16600160006101000a81548173ffffffffffffffffffffffffffffffffffffffff021916908373ffffffffffffffffffffffffffffffffffffffff1602179055506000600260006101000a81548173ffffffffffffffffffffffffffffffffffffffff021916908373ffffffffffffffffffffffffffffffffffffffff160217905550565b60066020528060005260406000206000915090505481565b600560009054906101000a900473ffffffffffffffffffffffffffffffffffffffff1681565b6000610bac8486858561087e565b610bfe600760008773ffffffffffffffffffffffffffffffffffffffff1673ffffffffffffffffffffffffffffffffffffffff1681526020019081526020016000205484611ad190919063ffffffff16565b9050610c0a85826112b0565b5050505050565b6000806000849250600091505b83518260ff161015610db857838260ff16815181101515610c3b57fe5b906020019060200201519050600060010281600019161415610c5c57610dab565b806000191683600019161015610d0d5782816040516020018083600019166000191681526020018260001916600019168152602001925050506040516020818303038152906040526040518082805190602001908083835b602083101515610cd95780518252602082019150602081019050602083039250610cb4565b6001836020036101000a03801982511681845116808217855250505050505090500191505060405180910390209250610daa565b80836040516020018083600019166000191681526020018260001916600019168152602001925050506040516020818303038152906040526040518082805190602001908083835b602083101515610d7a5780518252602082019150602081019050602083039250610d55565b6001836020036101000a038019825116818451168082178552505050505050905001915050604051809103902092505b5b8180600101925050610c1e565b505092915050565b60076020528060005260406000206000915090505481565b60035481565b60046020528060005260406000206000915090505481565b60006020528060005260406000206000915090505481565b600160009054906101000a900473ffffffffffffffffffffffffffffffffffffffff1681565b600160009054906101000a900473ffffffffffffffffffffffffffffffffffffffff1673ffffffffffffffffffffffffffffffffffffffff163373ffffffffffffffffffffffffffffffffffffffff16141515610ef9576040517f08c379a00000000000000000000000000000000000000000000000000000000081526004018080602001828103825260098152602001807f6f6e6c794f776e6572000000000000000000000000000000000000000000000081525060200191505060405180910390fd5b80600560006101000a81548173ffffffffffffffffffffffffffffffffffffffff021916908373ffffffffffffffffffffffffffffffffffffffff1602179055508073ffffffffffffffffffffffffffffffffffffffff167f4721129e0e676ed6a92909bb24e853ccdd63ad72280cc2e974e38e480e0e6e5460405160405180910390a250565b60095481565b606060006001026000808781526020019081526020016000205460001916141515611019576040517f08c379a000000000000000000000000000000000000000000000000000000000815260040180806020018281038252600f8152602001807f6572726f725f6f7665727772697465000000000000000000000000000000000081525060200191505060405180910390fd5b82828080601f0160208091040260200160405190810160405280939291908181526020018383808284378201915050505050509050611059858583611af2565b8360008087815260200190815260200160002081600019169055507f4268b0369742123cb8066ef715ccf53f3f1f710b5894e43e1ba1d159ed64e4c185858360405180848152602001836000191660001916815260200180602001828103825283818151815260200191508051906020019080838360005b838110156110ec5780820151818401526020810190506110d1565b50505050905090810190601f1680156111195780820380516001836020036101000a031916815260200191505b5094505050505060405180910390a15050505050565b60008060008585604051602001808373ffffffffffffffffffffffffffffffffffffffff1673ffffffffffffffffffffffffffffffffffffffff166c01000000000000000000000000028152601401828152602001925050506040516020818303038152906040526040518082805190602001908083835b6020831015156111cc57805182526020820191506020810190506020830392506111a7565b6001836020036101000a038019825116818451168082178552505050505050905001915050604051809103902091506000808881526020019081526020016000205490506000600102816000191614151515611290576040517f08c379a00000000000000000000000000000000000000000000000000000000081526004018080602001828103825260138152602001807f6572726f725f626c6f636b4e6f74466f756e640000000000000000000000000081525060200191505060405180910390fd5b61129a8285610c11565b6000191681600019161492505050949350505050565b60008082111515611329576040517f08c379a00000000000000000000000000000000000000000000000000000000081526004018080602001828103825260128152602001807f6572726f725f7a65726f5769746864726177000000000000000000000000000081525060200191505060405180910390fd5b61137b82600760008673ffffffffffffffffffffffffffffffffffffffff1673ffffffffffffffffffffffffffffffffffffffff16815260200190815260200160002054611bd490919063ffffffff16565b9050600660008473ffffffffffffffffffffffffffffffffffffffff1673ffffffffffffffffffffffffffffffffffffffff168152602001908152602001600020548111151515611434576040517f08c379a000000000000000000000000000000000000000000000000000000000815260040180806020018281038252600f8152602001807f6572726f725f6f7665726472616674000000000000000000000000000000000081525060200191505060405180910390fd5b80600760008573ffffffffffffffffffffffffffffffffffffffff1673ffffffffffffffffffffffffffffffffffffffff1681526020019081526020016000208190555061148d82600854611bd490919063ffffffff16565b600881905550600a60009054906101000a900473ffffffffffffffffffffffffffffffffffffffff1673ffffffffffffffffffffffffffffffffffffffff1663a9059cbb84846040518363ffffffff167c0100000000000000000000000000000000000000000000000000000000028152600401808373ffffffffffffffffffffffffffffffffffffffff1673ffffffffffffffffffffffffffffffffffffffff16815260200182815260200192505050602060405180830381600087803b15801561155857600080fd5b505af115801561156c573d6000803e3d6000fd5b505050506040513d602081101561158257600080fd5b81019080805190602001909291905050501515611607576040517f08c379a000000000000000000000000000000000000000000000000000000000815260040180806020018281038252600e8152602001807f6572726f725f7472616e7366657200000000000000000000000000000000000081525060200191505060405180910390fd5b505050565b600260009054906101000a900473ffffffffffffffffffffffffffffffffffffffff1681565b600160009054906101000a900473ffffffffffffffffffffffffffffffffffffffff1673ffffffffffffffffffffffffffffffffffffffff163373ffffffffffffffffffffffffffffffffffffffff161415156116f7576040517f08c379a00000000000000000000000000000000000000000000000000000000081526004018080602001828103825260098152602001807f6f6e6c794f776e6572000000000000000000000000000000000000000000000081525060200191505060405180910390fd5b80600260006101000a81548173ffffffffffffffffffffffffffffffffffffffff021916908373ffffffffffffffffffffffffffffffffffffffff16021790555050565b600a60009054906101000a900473ffffffffffffffffffffffffffffffffffffffff1681565b6000600460008581526020019081526020016000205490506003548101421115156117f4576040517f08c379a000000000000000000000000000000000000000000000000000000000815260040180806020018281038252600c8152602001807f6572726f725f66726f7a656e000000000000000000000000000000000000000081525060200191505060405180910390fd5b81600660008573ffffffffffffffffffffffffffffffffffffffff1673ffffffffffffffffffffffffffffffffffffffff168152602001908152602001600020541015156118aa576040517f08c379a00000000000000000000000000000000000000000000000000000000081526004018080602001828103825260118152602001807f6572726f725f6f6c644561726e696e677300000000000000000000000000000081525060200191505060405180910390fd5b611910600660008573ffffffffffffffffffffffffffffffffffffffff1673ffffffffffffffffffffffffffffffffffffffff1681526020019081526020016000205461190284600954611bd490919063ffffffff16565b611ad190919063ffffffff16565b600981905550600a60009054906101000a900473ffffffffffffffffffffffffffffffffffffffff1673ffffffffffffffffffffffffffffffffffffffff166370a08231306040518263ffffffff167c0100000000000000000000000000000000000000000000000000000000028152600401808273ffffffffffffffffffffffffffffffffffffffff1673ffffffffffffffffffffffffffffffffffffffff168152602001915050602060405180830381600087803b1580156119d357600080fd5b505af11580156119e7573d6000803e3d6000fd5b505050506040513d60208110156119fd57600080fd5b810190808051906020019092919050505060095411151515611a87576040517f08c379a00000000000000000000000000000000000000000000000000000000081526004018080602001828103825260148152602001807f6572726f725f6d697373696e6742616c616e636500000000000000000000000081525060200191505060405180910390fd5b81600660008573ffffffffffffffffffffffffffffffffffffffff1673ffffffffffffffffffffffffffffffffffffffff1681526020019081526020016000208190555050505050565b600080838311151515611ae357600080fd5b82840390508091505092915050565b600560009054906101000a900473ffffffffffffffffffffffffffffffffffffffff1673ffffffffffffffffffffffffffffffffffffffff163373ffffffffffffffffffffffffffffffffffffffff16141515611bb7576040517f08c379a00000000000000000000000000000000000000000000000000000000081526004018080602001828103825260128152602001807f6572726f725f6e6f745065726d6974746564000000000000000000000000000081525060200191505060405180910390fd5b426004600085815260200190815260200160002081905550505050565b6000808284019050838110151515611beb57600080fd5b80915050929150505600a165627a7a72305820fff28e3c99f21ce18556a9eb62dc409c8a24a06e83b51be316c3e1c8b52dd1340029",
  "source": "pragma solidity ^0.4.24;\n\nimport \"openzeppelin-solidity/contracts/math/SafeMath.sol\";\nimport \"openzeppelin-solidity/contracts/token/ERC20/IERC20.sol\";\n\nimport \"./BalanceVerifier.sol\";\nimport \"./Ownable.sol\";\n\n/**\n * Monoplasma that is managed by an owner, likely the side-chain operator\n * Owner can add and remove recipients.\n */\ncontract Monoplasma is BalanceVerifier, Ownable {\n    using SafeMath for uint256;\n\n    event OperatorChanged(address indexed newOperator);\n\n    /**\n     * Freeze period during which all side-chain participants should be able to\n     *   acquire the whole balance book from IPFS (or HTTP server, or elsewhere)\n     *   and validate that the published rootHash is correct\n     * In case of incorrect rootHash, all members should issue withdrawals from the\n     *   latest block they have validated (that is older than blockFreezeSeconds)\n     * So: too short freeze period + bad availability => ether (needlessly) spent withdrawing earnings\n     *     long freeze period == lag between purchase and withdrawal => bad UX\n     * Blocks older than blockFreezeSeconds can be used to withdraw funds\n     */\n    uint public blockFreezeSeconds;\n\n    /**\n     * Block number => timestamp\n     * Publish time of a block, where the block freeze period starts from.\n     * Note that block number points to the block after which the root hash is calculated,\n     *   not the block where BlockCreated was emitted (event must come later)\n     */\n    mapping (uint => uint) public blockTimestamp;\n\n    address public operator;\n\n    mapping (address => uint) public earnings;\n    mapping (address => uint) public withdrawn;\n    uint public totalWithdrawn;\n    uint public totalProven;\n\n    IERC20 public token;\n\n    constructor(address tokenAddress, uint blockFreezePeriodSeconds) public {\n        blockFreezeSeconds = blockFreezePeriodSeconds;\n        token = IERC20(tokenAddress);\n        operator = msg.sender;\n    }\n\n    function setOperator(address newOperator) public onlyOwner {\n        operator = newOperator;\n        emit OperatorChanged(newOperator);\n    }\n\n    /**\n     * Owner creates the side-chain blocks\n     */\n    function onCommit(uint blockNumber, bytes32, string) internal {\n        require(msg.sender == operator, \"error_notPermitted\");\n        blockTimestamp[blockNumber] = now;\n    }\n\n    /**\n     * Called from BalanceVerifier.prove\n     * Prove can be called directly to withdraw less than the whole share,\n     *   or just \"cement\" the earnings so far into root chain even without withdrawing\n     */\n    function onVerifySuccess(uint blockNumber, address account, uint newEarnings) internal {\n        uint blockFreezeStart = blockTimestamp[blockNumber];\n        require(now > blockFreezeStart + blockFreezeSeconds, \"error_frozen\");\n        require(earnings[account] < newEarnings, \"error_oldEarnings\");\n        totalProven = totalProven.add(newEarnings).sub(earnings[account]);\n        require(totalProven <= token.balanceOf(this), \"error_missingBalance\");\n        earnings[account] = newEarnings;\n    }\n\n    /**\n     * Prove and withdraw the whole revenue share from sidechain in one transaction\n     * @param blockNumber of the leaf to verify\n     * @param totalEarnings in the side-chain\n     * @param proof list of hashes to prove the totalEarnings\n     */\n    function withdrawAll(uint blockNumber, uint totalEarnings, bytes32[] proof) external {\n        withdrawAllFor(msg.sender, blockNumber, totalEarnings, proof);\n    }\n\n    /**\n     * Prove and withdraw the whole revenue share for a given address from sidechain in one transaction\n     * @param recipient the address we're proving and withdrawing\n     * @param blockNumber of the leaf to verify\n     * @param totalEarnings in the side-chain\n     * @param proof list of hashes to prove the totalEarnings\n     */\n    function withdrawAllFor(address recipient, uint blockNumber, uint totalEarnings, bytes32[] proof) public {\n        prove(blockNumber, recipient, totalEarnings, proof);\n        uint withdrawable = totalEarnings.sub(withdrawn[recipient]);\n        withdrawFor(recipient, withdrawable);\n    }\n\n    /**\n     * @dev It is up to the sidechain implementation to make sure\n     * @dev  always token balance >= sum of earnings - sum of withdrawn\n     */\n    function withdraw(uint amount) public {\n        withdrawFor(msg.sender, amount);\n    }\n\n    /**\n     * @dev It is up to the sidechain implementation to make sure\n     * @dev  always token balance >= sum of earnings - sum of withdrawn\n     */\n    function withdrawFor(address recipient, uint amount) public {\n        require(amount > 0, \"error_zeroWithdraw\");\n        uint w = withdrawn[recipient].add(amount);\n        require(w <= earnings[recipient], \"error_overdraft\");\n        withdrawn[recipient] = w;\n        totalWithdrawn = totalWithdrawn.add(amount);\n        require(token.transfer(recipient, amount), \"error_transfer\");\n    }\n}\n",
  "sourcePath": "monoplasma/contracts/Monoplasma.sol",
  "compiler": {
    "name": "solc",
    "version": "0.4.24+commit.e67f0147.Emscripten.clang"
  },
  "schemaVersion": "1.1.1",
  "updatedAt": "2019-05-14T13:50:17.695Z"
}